:10000000B1C00000CFC00000CDC00000CBC00000D8
:10001000C9C00000C7C00000C5C00000C3C00000C8
:10002000C1C00000BFC00000BDC00000BBC00000D8
:100030000C94EA0FB7C00000B5C00000B3C00000C8
:10004000B1C00000AFC00000ADC00000ABC00000F8
:10005000A9C00000A7C00000A5C00000A3C0000008
:10006000A1C000000C94C23F0C9414409BC000003F
:1000700099C0000097C0000095C0000093C0000028
:1000800091C000008FC000008DC000008BC0000038
:100090000C9458400C94AA4085C0000083C0000016
:1000A00081C000007FC000007DC000007BC0000058
:1000B00079C0000077C0000075C0000073C0000068
:1000C00071C000006FC000006DC000000C94EE40D5
:1000D0000C94404167C000000C9484410C94D641BC
:1000E00061C000003035303530358F359A35D13527
:1000F000303530358F359A35CF93DF931F921F926D
:10010000CDB7DEB79A8389830E94F5278091951336
:10011000823010F00E94FF0E0E94FE36F5CFCF9382
:10012000DF93CDB7DEB727970FB6F894DEBF0FBECB
:10013000CDBF9F838E83CE0105960E94C233DC0122
:10014000CB0189839A83AB83BC832D8189819A817A
:10015000AB81BC81422FBC01CD010E9443330E9480
:10016000E934E9CF11241FBECFEFD1E2DEBFCDBF0E
:1001700000E00CBF19E0A0E0B2E0EEEEF3E900E031
:100180000BBF02C007900D92A235B107D9F726E147
:10019000A2E5B9E001C01D92A632B207E1F759D538
:1001A0000C94F5492DCFEF92FF920F93CF93DF93ED
:1001B000CDB7DEB7E12CF12C03E020E030E040ECDD
:1001C00050E06DE172E08EEE90E00E94F11B0000C5
:1001D000DF91CF910F91FF90EF9008950F931F93B0
:1001E000CF93DF93CDB7DEB7A2970FB6F894DEBFFB
:1001F0000FBECDBF9AA389A30FB6F8940F9281E0EA
:100200000E94923A62E070E080E090E00E94211E3D
:1002100080E00E94923A66E970E080E090E00E94FF
:10022000211E0E944B3A66D00F900FBE8091C015E0
:100230009091C1154FEF5FEFBA010E941A132FD5AD
:100240009A8789878CE090E0A0E0B0E089839A8368
:10025000AB83BC83E091C415F091C51589819A8167
:10026000AB81BC81BE01675F7F4F8C019D0142E085
:1002700050E0CF010E9407199E838D8347D2988753
:100280008F838F819885892F99278D878F818E877E
:1002900082E08C8782E08B8783E00E940344CE015A
:1002A0000B96BC0180E00E94303B0E941D3D292F2F
:1002B0002F938F9384E392E0892F8F9384E392E0CE
:1002C0008F930E94D7460F900F900F900F9064E588
:1002D00074E280E090E00E94211E8091C21590910E
:1002E000C31500E020E030E0A90160E070E00E946A
:1002F0004D119CCFCF93DF931F921F92CDB7DEB7E6
:1003000081E00E948D430E94A03A0E941D3D292F4A
:100310002F938F9389E492E0892F8F9389E492E061
:100320008F930E94D7460F900F900F900F900E94CE
:100330001E3C0E941D3D292F2F938F938CE592E048
:10034000892F8F938CE592E08F930E94D7460F9070
:100350000F900F900F9082E599E00E94B23A8A8345
:100360008A810E941D3D9C0182E599E0892F8F932F
:1003700082E599E08F93832F8F93822F8F9385E768
:1003800092E0892F8F9385E792E08F930E94D74662
:100390000F900F900F900F900F900F9082E599E0C3
:1003A0000E94CE3A0E941D3D292F2F938F9382E504
:1003B00099E0892F8F9382E599E08F9389E892E005
:1003C000892F8F9389E892E08F930E94D7460F90F0
:1003D0000F900F900F900F900F9042E559E06EE94B
:1003E00072E08FEB92E00E94FC3C0E941D3D292FA1
:1003F0002F938F9382E599E0892F8F9382E599E07F
:100400008F938EE992E0892F8F938EE992E08F93FC
:100410008FEB92E0892F8F938FEB92E08F9380ED9B
:1004200092E0892F8F9380ED92E08F930E94D746C0
:100430008DB79EB70A960FB6F894DEBF0FBECDBF3C
:100440000E94013B0E941D3D292F2F938F9386E030
:1004500093E0892F8F9386E093E08F930E94D74695
:100460000F900F900F900F9081E00E94FB3B0E9435
:100470001D3D292F2F938F9385E193E0892F8F9333
:1004800085E193E08F930E94D7460F900F900F90D5
:100490000F9084EF91E00E94063C0E941D3D292FA1
:1004A0002F938F9381E08F9384EF8F9386E393E074
:1004B000892F8F9386E393E08F930E94D7460F9006
:1004C0000F900F900F900F900F908AE0898380E03B
:1004D0000E94073B8A838A810E941D3D9C0189817D
:1004E000882F90E0432F4F932F93292F2F938F9393
:1004F00086E593E0892F8F9386E593E08F930E94A2
:10050000D7460F900F900F900F900F900F908A8109
:10051000883081F080E00E94F14366E371E080E082
:1005200090E00E94211E89818150898389818823DE
:1005300071F601C000008A81883021F481E00E94B8
:10054000D34309C081E00E94E24380E00E94B043AF
:100550000E94FF0EFDCF0F900F90DF91CF91089575
:100560000F931F93CF93DF9300D01F92CDB7DEB7C9
:100570009C838B83F2D39A8389838091C715909152
:10058000C8154FEF5FEFBA010E941A13BFD08C015C
:1005900089819A812CD48017910788F49091B609AB
:1005A00081E08927882301F186E793E0DBD164E6C7
:1005B0008EE00E94523E81E08093B60915C0A6D01D
:1005C0008C0189819A8113D40817190768F48091E6
:1005D000B609882349F08AE893E0C4D16CE98EE03B
:1005E0000E94523E1092B6098091C0159091C1159B
:1005F00000E020E030E0A90160E070E00E944D11D1
:10060000BCCFEF92FF920F93CF93DF93CDB7DEB7BE
:100610000E946A3EE12CF12C07E020E030E040EC43
:1006200050E06EE973E080EB92E00E94F11B000065
:10063000DF91CF910F91FF90EF900895EF92FF928D
:100640000F93CF93DF93CDB7DEB783E00E94F93DE0
:1006500089E693E00E941E3EE12CF12C03E020E0AD
:1006600030E040EC50E066EA73E080E493E00E9402
:10067000F11B0000DF91CF910F91FF90EF90089553
:10068000CF92DF92EF92FF920F93CF93DF931F925F
:100690001F92CDB7DEB79A8389838091B709909175
:1006A000B809CC24CA94DC2C760101E021E041E0B9
:1006B00050E060E070E01AD40E94233E8093C6159B
:1006C0008091C615882349F386EB93E00E94EA46A1
:1006D000E4CFCF93DF931F921F92CDB7DEB79A83FB
:1006E000898389819A819093CA158093C9158091D5
:1006F000B9099091BA0942E050E060E070E07AD523
:1007000000000F900F90DF91CF910895CF93DF936A
:10071000CDB7DEB78091C9159091CA15DF91CF9101
:1007200008950F93CF93DF93CDB7DEB78091121664
:1007300090911316892B81F481E00E942F119093E0
:1007400013168093121680911216909113164FEF84
:100750005FEFBA010E941A138091CB159091CC15CE
:10076000892B81F481E00E942F119093CC15809306
:10077000CB158091CB159091CC154FEF5FEFBA015F
:100780000E941A138091C7159091C815892B81F486
:1007900081E00E942F119093C8158093C715809116
:1007A000C7159091C8154FEF5FEFBA010E941A1359
:1007B0008091C2159091C315892B81F481E00E942C
:1007C0002F119093C3158093C2158091C2159091FB
:1007D000C3154FEF5FEFBA010E941A138091CD1538
:1007E0009091CE15892B81F481E00E942F11909376
:1007F000CE158093CD158091CD159091CE154FEFEC
:100800005FEFBA010E941A13809110169091111691
:10081000892B81F481E00E942F119093111680930F
:10082000101680911016909111164FEF5FEFBA01DC
:100830000E941A1380910E1690910F16892B99F42D
:1008400081E00E942F1190930F1680930E168091D5
:100850000E1690910F1600E020E030E0A90160E054
:1008600070E00E944D118091C0159091C115892BA7
:1008700081F481E00E942F119093C1158093C015DF
:100880008091C0159091C1154FEF5FEFBA010E94A2
:100890001A130000DF91CF910F910895CF93DF934A
:1008A000CDB7DEB702D39093B8098093B709FDD2D4
:1008B0009093BA098093B9090000DF91CF91089510
:1008C000CF93DF93CDB7DEB784E090E041E060E006
:1008D00070E00E942F169093BC098093BB0984E0BE
:1008E00090E041E060E070E00E942F169093BE0916
:1008F0008093BD090000DF91CF910895EF92FF92A0
:100900000F93CF93DF93CDB7DEB7E12CF12C03E04B
:1009100020E030E040EC50E068ED73E082E195E0EB
:100920000E94F11BE12CF12C03E020E030E040ECD0
:1009300050E065EF73E082E895E00E94F11B809142
:1009400012169091131600E020E030E0A90160E05B
:1009500070E00E944D110000DF91CF910F91FF9048
:10096000EF9008950F93CF93DF931F921F92CDB70F
:10097000DEB79A83898380910E1690910F164FEF00
:100980005FEFBA010E941A13813081F489819A8144
:100990000E94EA4680910E1690910F1600E020E02A
:1009A00030E0A90160E070E00E944D1100000F905E
:1009B0000F90DF91CF910F9108950F93CF93DF9315
:1009C000CDB7DEB7AEDE80E00E94384281E290E033
:1009D00021E230E0F90120812168FC0120835EDF03
:1009E0006FDF85E00E943F438091BD099091BE0971
:1009F000BC0181E00E94523A04DED5DB0AD21EDE41
:100A00007DDF809112169091131600E020E030E017
:100A1000A90160E070E00E944D110000DF91CF91CC
:100A20000F910895CF92DF92EF92FF920F93CF93A1
:100A3000DF93CDB7DEB7C154D1090FB6F894DEBF4E
:100A40000FBECDBF9E01205C3F4FF9019183808393
:100A50008091C2159091C3154FEF5FEFBA010E94CC
:100A60001A138091B9099091BA0942E050E060E010
:100A700070E073D38091B7099091B80941E050E0DC
:100A800060E070E0B7D38091B9099091BA09CC24A5
:100A9000CA94DC2C760101E021E042E050E060E005
:100AA00070E024D28091B7099091B80941E050E0FC
:100AB00060E070E052D32ADE292F2F938F9389E0D4
:100AC00094E0892F8F9389E094E08F93CE01019673
:100AD0009F938F930E941A470F900F900F900F9043
:100AE0000F900F90CE0101963DDF8091CB15909134
:100AF000CC1500E020E030E0A90160E070E00E9449
:100B00004D11A6CF0F931F93CF93DF93CDB7DEB7D1
:100B1000C355D1090FB6F894DEBF0FBECDBF9E01FD
:100B20002E5A3F4FF901918380838091CB1590918C
:100B3000CC154FEF5FEFBA010E941A13B0D09A8321
:100B40008983E4DD9C0189819A81B901DBD086E04B
:100B500090E0A0E0B0E08B839C83AD83BE8382E015
:100B600090E098878F834F815885E091BB09F09181
:100B7000BC098B819C81AD81BE8169817A818C01A8
:100B80009D01CF010E9420179A8789878F819885C0
:100B900029853A852817390751F089819A819FD094
:100BA00064E574E280E090E00E94211EBECF8CE0FC
:100BB00090E0A0E0B0E08B879C87AD87BE876FD0C8
:100BC0009A8B898B4F815885E091BB09F091BC09C4
:100BD0008B859C85AD85BE85BE016F5E7F4F8C0188
:100BE0009D01CF010E940719988B8F878F85988967
:100BF000181619060CF099CF89899A899CD0292F4B
:100C00002F938F9380E494E0892F8F9380E494E076
:100C10008F93CE014396292F2F938F930E941A47CB
:100C20000F900F900F900F900F900F90CE01439662
:100C300099DE89899A8953D08091C7159091C815FA
:100C400000E020E030E0A90160E070E00E944D117A
:100C50006CCF0F93CF93DF93CDB7DEB7AEDE80912D
:100C60001216909113164FEF5FEFBA010E941A13FC
:100C700081E694E077DE8091C2159091C31500E083
:100C800020E030E0A90160E070E00E944D110E9478
:100C90004F1E80E090E0DF91CF910F910895CF93A8
:100CA000DF931F921F92CDB7DEB786E090E0FDD3B1
:100CB0009A83898389819A812FEF3FEFFC013183E9
:100CC000208389819A81892B19F480E090E002C009
:100CD00089819A810F900F90DF91CF910895CF93E2
:100CE000DF931F921F92CDB7DEB79A8389838981E4
:100CF0009A81F1D41A82198200000F900F90DF912F
:100D0000CF910895CF93DF9300D01F92CDB7DEB778
:100D10009A8389837C836B8389819A812B813C812F
:100D2000FC013183208300000F900F900F900F90F3
:100D3000DF91CF910895CF93DF931F921F92CDB78C
:100D4000DEB79A83898389819A81FC0180819181B0
:100D50000F900F90DF91CF910895CF93DF931F9263
:100D60001F92CDB7DEB782E090E09FD39A8389834C
:100D700089819A812CEB32E0FC01318320838981C7
:100D80009A81892B19F480E090E002C089819A81D0
:100D90000F900F90DF91CF910895CF93DF9300D004
:100DA0001F92CDB7DEB79A8389837C836B83898159
:100DB0009A812B813C81FC01318320838C818F932C
:100DC0008B818F9384E794E0892F8F9384E794E05D
:100DD0008F930E94D7460F900F900F900F900000B6
:100DE0000F900F900F900F90DF91CF910895CF93B8
:100DF000DF931F921F92CDB7DEB79A8389838981D3
:100E00009A81FC01808191810F900F90DF91CF91A9
:100E10000895EF92FF920F93CF93DF93CDB7DEB794
:100E2000E12CF12C03E020E030E040EC50E068EAF7
:100E300074E084E297E00E94F11B0000DF91CF9103
:100E40000F91FF90EF900895CF93DF9300D01F9202
:100E5000CDB7DEB79C838B8380DF9A838983209113
:100E60001A1630911B1689819A81B90196DF80ECA0
:100E700094E00E94EA466CE070E080E090E00E941E
:100E8000211E89819A81B3DF292F2F938F9381EEC1
:100E900094E0892F8F9381EE94E08F930E94D74640
:100EA0000F900F900F900F90D7CFCF93DF931F929B
:100EB0001F92CDB7DEB78FE090E0F7D29A83898397
:100EC00089819A81892B59F089819A81FC0110824C
:100ED00011821282138289819A8104969FD5898119
:100EE0009A810F900F90DF91CF910895CF92DF926A
:100EF000EF92FF920F931F93CF93DF93CDB7DEB79F
:100F00006D970FB6F894DEBF0FBECDBF9B8B8A8B5B
:100F10004C8B5D8B6E8B7F8B288F098FCA8EDB8EFF
:100F2000EC8EFD8E8A899B899A8789871D821E8215
:100F30001F8218861B860E94941E89859A85FC0153
:100F400080819181A281B3818C879D87AE87BF8785
:100F50002C893D894E895F898C859D85AE85BF85AD
:100F6000098DBC01CD0154D2888B8889882359F121
:100F70008C859D85AE85BF8589839A83AB83BC8331
:100F80001A8E1B8E1C8E1D8E888D882309F465C0D9
:100F900089859A85FC0120813181428153818C8928
:100FA0009D89AE89BF8980959095A095B095822343
:100FB0009323A423B52329853A85F901808391835E
:100FC000A283B3834AC08A8D9B8DAC8DBD8D892B46
:100FD0008A2B8B2B59F48C859D85AE85BF858983A3
:100FE0009A83AB83BC8381E08B8737C0888D88234D
:100FF00049F08D819E81AF81B885B1608D839E83DC
:10100000AF83B887898D882349F08D819E81AF8118
:10101000B885B4608D839E83AF83B8872C893D8962
:101020004E895F898D819E81AF81B885822B932BFC
:10103000A42BB52B29853A85F90134962A8D3B8D51
:101040004C8D5D8D89019A01AC01BD01CF010E94DB
:10105000042319821A821B821C820E94A11E898B82
:101060008A8D9B8DAC8DBD8D892B8A2B8B2B09F4A2
:101070005FC08989882309F4C2D60E949E2BDC01B7
:10108000CB0189839A83AB83BC8389819A81AB81AD
:10109000BC8188279927AA27B270892B8A2B8B2B92
:1010A00009F03DC00FB6F8940F9289859A85FC012E
:1010B00080819181A281B38189839A83AB83BC8330
:1010C0002C893D894E895F8989819A81AB81BC8158
:1010D000098DBC01CD019CD18823E9F0888D88233E
:1010E000D1F089859A85FC0120813181428153812B
:1010F0008C899D89AE89BF8980959095A095B09582
:1011000082239323A423B52329853A85F90180837B
:101110009183A283B38381E08B870F900FBE898177
:101120009A81AB81BC81BB2789839A83AB83BC83C3
:1011300089819A81AB81BC81BC01CD016D960FB6CE
:10114000F894DEBF0FBECDBFDF91CF911F910F91FD
:10115000FF90EF90DF90CF900895CF93DF93CDB7BE
:10116000DEB72C970FB6F894DEBF0FBECDBF9887C1
:101170008F8349875A876B877C878F8198859A836D
:1011800089830FB6F8940F9289819A81FC0180813E
:101190009181A281B3818B839C83AD83BE8389813E
:1011A0009A81FC01208131814281538189859A8510
:1011B000AB85BC8580959095A095B09582239323AF
:1011C000A423B52329813A81F90180839183A283E5
:1011D000B3830F900FBE8B819C81AD81BE81BC011A
:1011E000CD012C960FB6F894DEBF0FBECDBFDF91B8
:1011F000CF910895CF93DF93CDB7DEB76D970FB63C
:10120000F894DEBF0FBECDBF998F888F4A8F5B8F5A
:101210006C8F7D8F1B821C821D821E82888D998D12
:10122000998788871F828885998504969B878A87F6
:101230008A859B8503969D878C870E94941E8A854C
:101240009B85FC01878190859A8389838885998510
:10125000FC0120813181428153818A8D9B8DAC8D2F
:10126000BD8D822B932BA42BB52B28853985F901B5
:1012700080839183A283B38395C089819A81FC0185
:10128000848195819F878E8789819A81FC018081E5
:101290009181A281B381888B998BAA8BBB8B1F8292
:1012A00088899989AA89BB8988279927AA278C8B3D
:1012B0009D8BAE8BBF8B88899989AA89BB89BB27F7
:1012C000888B998BAA8BBB8B8C899D89AE89BF89B2
:1012D00088279927AA27B470892B8A2B8B2BB1F4E6
:1012E00088859985FC0120813181428153818889DB
:1012F0009989AA89BB8982239323A423B523892BA7
:101300008A2B8B2BE9F081E08F831AC08885998521
:10131000FC01208131814281538188899989AA8980
:10132000BB89282339234A235B2388899989AA8981
:10133000BB89281739074A075B0711F481E08F83BF
:101340008F81882359F18C899D89AE89BF8988272F
:101350009927AA27B170892B8A2B8B2B81F02B819F
:101360003C814D815E8188899989AA89BB89822BBC
:10137000932BA42BB52B8B839C83AD83BE83888555
:101380009985FC0180819181A281B381B26029811C
:101390003A81AC01BD01C9010E9472258E859F85ED
:1013A0009A83898329813A818C859D8528173907FD
:1013B00009F063CF88859985FC01208131814281C4
:1013C00053818B819C81AD81BE8180959095A09544
:1013D000B09582239323A423B52328853985F90169
:1013E00080839183A283B3830E94A11E88859985FF
:1013F000FC0180819181A281B381BC01CD016D96F8
:101400000FB6F894DEBF0FBECDBFDF91CF91089528
:101410000F93CF93DF93CDB7DEB72A970FB6F8942B
:10142000DEBF0FBECDBF6A837B838C839D832E83FB
:101430003F83488759870A8719828A85882399F4C8
:101440002A813B814C815D818E819F81A885B985F0
:1014500082239323A423B523892B8A2B8B2BD1F0B2
:1014600081E0898317C02A813B814C815D818E8117
:101470009F81A885B985282339234A235B238E8140
:101480009F81A885B985281739074A075B0711F49A
:1014900081E0898389812A960FB6F894DEBF0FBE5A
:1014A000CDBFDF91CF910F910895CF93DF93CDB74B
:1014B000DEB72A970FB6F894DEBF0FBECDBF9A876E
:1014C00089871E821D820E94941E809187139091AD
:1014D0008813892B09F46ED12091911330919213C6
:1014E00089859A8582239323892B09F0E1C0898518
:1014F0009A85892BA1F024E030E089859A85280F10
:10150000391F89859A858217930748F484E090E013
:1015100029853A85820F931F9A87898702C01A8688
:10152000198689859A85892B09F4C2C0809189130F
:1015300090918A1329853A858217930708F4B8C0D9
:1015400083E893E19C838B83809183139091841330
:101550009A8389830BC089819A819C838B8389813B
:101560009A81FC01808191819A83898389819A8102
:10157000FC012281338189859A852817390738F43F
:1015800089819A81FC0180819181892B21F7809149
:1015900087139091881329813A812817390709F414
:1015A00087C08B819C81FC012081318184E090E0A7
:1015B000820F931F9E838D8389819A81FC012081F4
:1015C00031818B819C81FC013183208389819A81C7
:1015D000FC012281338189859A85281B390B84E09F
:1015E00090E0880F991F8217930700F529813A81AF
:1015F00089859A85820F931F98878F8389819A8125
:10160000FC012281338189859A85281B390B8F81C2
:101610009885FC013383228389819A8129853A85C3
:10162000FC01338322838F81988544D120918913D3
:1016300030918A1389819A81FC0182819381A90169
:10164000481B590BCA0190938A13809389132091E8
:10165000891330918A1380918B1390918C132817E2
:10166000390740F48091891390918A1390938C13D9
:1016700080938B1389819A81FC012281338180912F
:10168000911390919213282B392B89819A81FC0117
:101690003383228389819A81FC0111821082809197
:1016A0008D1390918E13019690938E1380938D13CA
:1016B0000E94A11E8D819E81892B11F40E943137D9
:1016C0008D819E812A960FB6F894DEBF0FBECDBFE6
:1016D000DF91CF910895CF93DF9300D000D0CDB7A5
:1016E000DEB79E838D838D819E819A8389838D81D0
:1016F0009E81892B09F454C084E090E091958195F6
:10170000910929813A81820F931F9A838983898164
:101710009A819C838B838B819C81FC012281338104
:10172000809191139091921382239323892BC1F17D
:101730008B819C81FC0180819181892B89F58B8132
:101740009C81FC01228133818091911390919213AD
:1017500080959095282339238B819C81FC013383CC
:1017600022830E94941E8B819C81FC012281338103
:101770008091891390918A13820F931F90938A13FB
:10178000809389138B819C8195D080918F13909148
:10179000901301969093901380938F130E94A11E33
:1017A000000026960FB6F894DEBF0FBECDBFDF91C6
:1017B000CF910895CF93DF93CDB7DEB728970FB6BB
:1017C000F894DEBF0FBECDBF84EC99E09A83898385
:1017D0008FEB99E09C838B838B819C819E838D838F
:1017E0008D819E819093841380938313109286132E
:1017F000109285132D813E8189819A81820F931FDA
:101800009C838B8384E090E02B813C81A901481B61
:10181000590BCA019C838B838B819C819093881385
:10182000809387138091871390918813FC01138212
:1018300012828091871390918813FC01118210828B
:101840008D819E8198878F838F8198852B813C81A4
:10185000281B390B8F819885FC01338322832091CB
:101860008713309188138F819885FC013183208301
:101870008F819885FC018281938190938C13809352
:101880008B138F819885FC018281938190938A13B9
:101890008093891380E090E8909392138093911342
:1018A000000028960FB6F894DEBF0FBECDBFDF91C3
:1018B000CF910895CF93DF9300D000D0CDB7DEB79E
:1018C0009E838D8383E893E19A83898307C089810E
:1018D0009A81FC01808191819A83898389819A818F
:1018E000FC01208131818D819E812817390778F391
:1018F00089819A819C838B8389819A81FC01828171
:1019000093812B813C81280F391F8D819E8128175F
:101910003907A9F489819A81FC01228133818D8163
:101920009E81FC0182819381280F391F89819A81D0
:10193000FC013383228389819A819E838D838D81EB
:101940009E819C838B838D819E81FC01828193810A
:101950002B813C81280F391F89819A81FC0180816C
:10196000918128173907C1F589819A81FC0120816D
:10197000318180918713909188132817390711F1CD
:101980008D819E81FC012281338189819A81FC01B4
:1019900080819181FC0182819381280F391F8D8183
:1019A0009E81FC013383228389819A81FC0180819D
:1019B0009181FC01208131818D819E81FC013183E7
:1019C000208314C020918713309188138D819E81CC
:1019D000FC01318320830AC089819A81FC01208126
:1019E00031818D819E81FC013183208329813A815F
:1019F0008D819E812817390739F089819A812D813F
:101A00003E81FC0131832083000026960FB6F894B6
:101A1000DEBF0FBECDBFDF91CF910895CF93DF938F
:101A20001F921F92CDB7DEB79A83898389819A81ED
:101A30009C012D5F3F4F89819A81FC013283218374
:101A400029813A818FEF9FEFDC01F9018383948331
:101A5000A583B68389819A819C012D5F3F4F89813F
:101A60009A81FC013087278389819A819C012D5FAF
:101A70003F4F89819A81FC013287218789819A8130
:101A8000FC01108200000F900F90DF91CF9108951C
:101A9000CF93DF931F921F92CDB7DEB79A838983CE
:101AA00089819A81FC011386128600000F900F90A5
:101AB000DF91CF910895CF93DF93CDB7DEB72A970B
:101AC0000FB6F894DEBF0FBECDBF98878F837A879D
:101AD000698789859A85FC0180819181A281B38182
:101AE0008B839C83AD83BE838B819C81AD81BE81C2
:101AF0008F3F9F4FAF4FBF4F41F48F819885FC01BF
:101B0000818592859A83898320C08F8198850396E9
:101B10009A83898307C089819A81FC018481958198
:101B20009A83898389819A81FC0184819581FC0152
:101B300020813181428153818B819C81AD81BE8125
:101B400082179307A407B50730F789819A81FC01B2
:101B50002481358189859A85FC0135832483898593
:101B60009A85FC018481958129853A85FC0137831A
:101B7000268389859A8529813A81FC0137832683CA
:101B800089819A8129853A85FC0135832483898559
:101B90009A852F813885FC01338722878F8198852C
:101BA000FC01808121E0280F8F819885FC01208332
:101BB00000002A960FB6F894DEBF0FBECDBFDF91AE
:101BC000CF910895CF93DF9300D01F92CDB7DEB7AA
:101BD0009C838B838B819C81FC01828593859A8376
:101BE00089838B819C81FC01848195812B813C813F
:101BF000F90126813781FC01378326838B819C8103
:101C0000FC01868197812B813C81F90124813581FA
:101C1000FC013583248389819A81FC0121813281F1
:101C20008B819C812817390751F48B819C81FC01A1
:101C30002681378189819A81FC01328321838B81BE
:101C40009C81FC011386128689819A81FC01808126
:101C50002FEF280F89819A81FC01208389819A8145
:101C6000FC0180810F900F900F900F90DF91CF912A
:101C70000895CF93DF93CDB7DEB728970FB6F894CA
:101C8000DEBF0FBECDBF9C838B837E836D83588761
:101C90004F838D819E819A83898329818B819C8149
:101CA000FC0120838B819C8101979C838B8389819C
:101CB0009A81892F99279A83898329818B819C8195
:101CC000FC0120838B819C8101979C838B838B817A
:101CD0009C81FC0110828B819C8101979C838B836A
:101CE0008B819C81FC0110828B819C8101979C835C
:101CF0008B838B819C8120E8FC0120838B819C81DC
:101D000001979C838B838B819C81FC0110828B814A
:101D10009C8101979C838B838B819C81FC01108229
:101D20008B819C8101979C838B838B819C81FC019F
:101D300010828B819C8147979C838B838F819885B0
:101D40009A83898329818B819C81FC0120838B81EB
:101D50009C8101979C838B8389819A81892F992704
:101D60009A83898329818B819C81FC0120838B81CB
:101D70009C8107979C838B838B819C8128960FB6CF
:101D8000F894DEBF0FBECDBFDF91CF910895CF9302
:101D9000DF93CDB7DEB7FFD0A0919313B09194132A
:101DA000CD91CDBFDD91DEBFFF91EF91DF91CF915E
:101DB000BF91AF919F918F917F916F915F914F9163
:101DC0003F912F911F910F91FF90EF90DF90CF9057
:101DD000BF90AF909F908F907F906F905F904F904B
:101DE0003F902F901F900F900CBE0F900BBE0F9046
:101DF0000FBE0F90089581E0DF91CF9108950F926B
:101E00000FB6F8940F920BB60F920CB60F921F926A
:101E100011242F923F924F925F926F927F928F92F6
:101E20009F92AF92BF92CF92DF92EF92FF920F9369
:101E30001F932F933F934F935F936F937F938F9352
:101E40009F93AF93BF93CF93DF93EF93FF93A091B3
:101E50009313B09194130DB60D920EB60D920E948D
:101E60004D22A0919313B0919413CD91CDBFDD91EC
:101E7000DEBFFF91EF91DF91CF91BF91AF919F9125
:101E80008F917F916F915F914F913F912F911F9112
:101E90000F91FF90EF90DF90CF90BF90AF909F9009
:101EA0008F907F906F905F904F903F902F901F90FA
:101EB0000F900CBE0F900BBE0F900FBE0F900895A9
:101EC00000000F920FB6F8940F920BB60F920CB65B
:101ED0000F921F9211242F923F924F925F926F9216
:101EE0007F928F929F92AF92BF92CF92DF92EF92AA
:101EF000FF920F931F932F933F934F935F936F9393
:101F00007F938F939F93AF93BF93CF93DF93EF9381
:101F1000FF93A0919313B09194130DB60D920EB64A
:101F20000D9283E590E0FC0110820E9454208823EA
:101F300011F00E944D22A0919313B0919413CD9172
:101F4000CDBFDD91DEBFFF91EF91DF91CF91BF91CA
:101F5000AF919F918F917F916F915F914F913F9141
:101F60002F911F910F91FF90EF90DF90CF90BF9036
:101F7000AF909F908F907F906F905F904F903F9029
:101F80002F901F900F900CBE0F900BBE0F900FBEA6
:101F90000F9008950000CF93DF93CDB7DEB7A895DB
:101FA00080E090E088709927892B11F080EE01C0C5
:101FB00080EC90E09770892B982F88E10FB6F89409
:101FC000A895809360000FBE909360000000DF91A1
:101FD000CF91089576DF18950000CF93DF9300D05E
:101FE0001F921F92CDB7DEB79C838B836D838B814D
:101FF0009C819A8389830FB6F8940F9289819A8184
:10200000FC018081918129813A81F901278D422F3C
:1020100050E029813A81F90120A1222F30E0429F2E
:10202000B001439F700D529F700D11249B01280F2A
:10203000391F89819A81FC013583248389819A81A2
:10204000FC01168E89819A81FC0120813181898170
:102050009A81FC013383228389819A81FC0120814A
:10206000318189819A81FC01878D882F90E0BC01A4
:102070006150710989819A81FC0180A1482F50E04B
:10208000649FC001659F900D749F900D1124280FCF
:10209000391F89819A81FC013783268389819A813E
:1020A0002FEFFC0121A389819A812FEFFC0122A34C
:1020B0008D81882379F489819A81FC018085882328
:1020C00089F089819A8108960E94FD23882351F026
:1020D00096DE08C089819A810896A0DC89819A8160
:1020E00043969CDC0F900FBE81E00F900F900F90F5
:1020F0000F900F90DF91CF9108950F931F93CF937F
:10210000DF93CDB7DEB729970FB6F894DEBF0FBEC9
:10211000CDBF8F83688749878F81482F50E088859E
:10212000282F30E0429FC001439F900D529F900D99
:1021300011249A83898389819A818396B6D99C8355
:102140008B838B819C81892B99F08B819C819E83D1
:102150008D838D819E8183969E838D832B813C818F
:102160008D819E8189012985AC0168858F810DD083
:102170008B819C8129960FB6F894DEBF0FBECDBF30
:10218000DF91CF911F910F9108950F931F93CF93DC
:10219000DF93CDB7DEB727970FB6F894DEBF0FBE3B
:1021A000CDBF89836A835C834B832D831F830E831A
:1021B0008A81882341F48E819F812E813F81FC0199
:1021C0003183208307C08E819F812B813C81FC015C
:1021D000318320838E819F812981FC01278F8E810D
:1021E0009F812A81FC0120A38E819F8161E0F5DE21
:1021F000000027960FB6F894DEBF0FBECDBFDF916B
:10220000CF911F910F9108950F93CF93DF931F925A
:102210001F92CDB7DEB79A83898389819A81892BF2
:10222000B9F089819A81FC011582148289819A8191
:10223000FC011182108289819A81FC0116828981B8
:102240009A8100E020E030E0A90160E070E025D054
:1022500000000F900F90DF91CF910F910895CF93D1
:10226000DF9300D01F921F92CDB7DEB78D8381E040
:1022700089831A824D816A8189813FDF9C838B83A8
:102280008B819C81C1DF8B819C810F900F900F907F
:102290000F900F90DF91CF9108950F93CF93DF931D
:1022A000CDB7DEB762970FB6F894DEBF0FBECDBFD5
:1022B0009B878A877D876C872E873F87488B598BC2
:1022C0000A8B19828A859B859B838A830FB6F89433
:1022D0000F928A819B81FC01268D8A819B81FC0162
:1022E000878D281718F08A898230F9F42C853D856E
:1022F0008A819B814A89B901A6D28C838A819B817C
:10230000FC018389882349F08A819B8143960E943E
:10231000FD23882331F073DD04C08C81882309F00C
:102320006EDD0F900FBE81E064C08E859F85A88909
:10233000B989892B8A2B8B2B21F40F900FBE80E05B
:1023400058C08981882331F4CE0105960E94D82691
:1023500081E089830F900FBE0E94941E0FB6F894FF
:102360000F928A819B81FC0181A18F3F21F48A8198
:102370009B81FC0111A28A819B81FC0182A18F3F7C
:1023800021F48A819B81FC0112A20F900FBE9E0155
:10239000225F3F4FCE010596B9010E94FB2688239C
:1023A00011F58A819B81EBD38823B9F08E859F85B7
:1023B000A889B9892A813B81285F3F4FAC01BD01C3
:1023C000C9010E94D9228A819B815ED30E94A11EED
:1023D000882309F07BCF13DD79CF8A819B8154D389
:1023E0000E94A11E73CF8A819B814ED30E94A11EA1
:1023F00080E062960FB6F894DEBF0FBECDBFDF91CE
:10240000CF910F910895CF93DF93CDB7DEB72D977E
:102410000FB6F894DEBF0FBECDBF98878F837A8743
:1024200069875C874B872D878F8198859B838A83FB
:102430001C828A819B81FC01268D8A819B81FC0103
:10244000878D281718F08D858230A9F58A819B81A8
:10245000FC0182A18D838A819B81FC01868D8E8304
:1024600029853A858A819B814D85B901ECD18D8181
:102470008F3FB9F48A819B81FC0183898823C1F055
:102480008A819B8143960E94FD23882389F08B8556
:102490009C85892B69F08B859C8521E0FC0120833C
:1024A00007C08D818F5F282F8A819B81FC0122A329
:1024B00081E0898301C0198289812D960FB6F89435
:1024C000DEBF0FBECDBFDF91CF910895CF93DF93D5
:1024D000CDB7DEB761970FB6F894DEBF0FBECDBFA4
:1024E0009B878A877D876C872E873F87488B598B90
:1024F00019828A859B859B838A830FB6F8940F92F5
:102500008A819B81FC01868D8C838C818823F9F0E4
:102510002C853D858A819B81B90165D28C812FEF05
:10252000280F8A819B81FC01268F8A819B81FC0177
:102530008085882341F08A819B8108960E94FD2333
:10254000882309F05CDC0F900FBE81E06AC08E85A5
:102550009F85A889B989892B8A2B8B2B21F40F9011
:102560000FBE80E05EC08981882331F4CE010596DC
:102570000E94D82681E089830F900FBE0E94941E8E
:102580000FB6F8940F928A819B81FC0181A18F3F45
:1025900021F48A819B81FC0111A28A819B81FC012B
:1025A00082A18F3F21F48A819B81FC0112A20F90AE
:1025B0000FBE9E01225F3F4FCE010596B9010E94DA
:1025C000FB26882311F58A819B81BCD28823B9F030
:1025D0008E859F85A889B9892A813B812D5E3F4FD1
:1025E000AC01BD01C9010E94D9228A819B814CD2D4
:1025F0000E94A11E882309F080CF01DC7ECF8A8152
:102600009B8142D20E94A11E78CF8A819B813CD2BD
:102610000E94A11E8A819B8195D2882309F46DCFE7
:1026200080E061960FB6F894DEBF0FBECDBFDF919C
:10263000CF910895CF93DF93CDB7DEB761970FB6F3
:10264000F894DEBF0FBECDBF9D878C874E875F8716
:10265000688B798B19828C859D859C838B831A82EC
:102660000FB6F8940F928B819C81FC01868D8D832F
:102670008D81882341F18D812FEF280F8B819C81E3
:10268000FC01268F8B819C81FC0180819181892BAB
:1026900041F40E94E52B9C018B819C81FC013583D8
:1026A00024838B819C81FC018085882341F08B8170
:1026B0009C8108960E94FD23882309F0A0DB0F90DF
:1026C0000FBE81E093C08E859F85A889B989892B2B
:1026D0008A2B8B2B21F40F900FBE80E087C089815D
:1026E000882331F4CE0107960E94D82681E08983A1
:1026F0000F900FBE0E94941E0FB6F8940F928B811C
:102700009C81FC0181A18F3F21F48B819C81FC0184
:1027100011A28B819C81FC0182A18F3F21F48B81CE
:102720009C81FC0112A20F900FBE9E01225F3F4FC1
:10273000CE010796B9010E94FB26882309F036C016
:102740008B819C81FFD1882359F18B819C81FC0175
:1027500080819181892B69F40FB6F8940F928B8157
:102760009C81FC01848195810E949B288A830F9023
:102770000FBE8E859F85A889B9892B813C812D5EEE
:102780003F4FAC01BD01C9010E94D9228B819C81C0
:102790007BD10E94A11E882309F062CF30DB60CF7D
:1027A0008B819C8171D10E94A11E5ACF8B819C810B
:1027B0006BD10E94A11E8B819C81C4D1882309F416
:1027C0004FCF8A81882389F00FB6F8940F928B81BE
:1027D0009C8115D08E838B819C81FC0184819581A5
:1027E0006E810E94982A0F900FBE80E061960FB60E
:1027F000F894DEBF0FBECDBFDF91CF910895CF9388
:10280000DF9300D0CDB7DEB79B838A838A819B811B
:10281000FC018389882379F08A819B81FC01828D68
:10282000938DFC0180819181A281B381982F8AE0F0
:10283000891B898301C0198289810F900F900F90A5
:10284000DF91CF910895CF93DF93CDB7DEB7279770
:102850000FB6F894DEBF0FBECDBF9C838B837E8303
:102860006D834F8319828B819C81FC01868D8A83C5
:102870008B819C81FC0180A18823B1F48B819C8198
:10288000FC0180819181892B09F09CC08B819C8106
:10289000FC01848195810E94B12989838B819C816F
:1028A000FC01158214828EC08F818823D9F58B811B
:1028B0009C81FC0180A1482F50E08B819C81FC0110
:1028C000828193812D813E81B9010E9478468B815E
:1028D0009C81FC01228133818B819C81FC0180A140
:1028E000882F90E0280F391F8B819C81FC01338356
:1028F00022838B819C81FC01228133818B819C818D
:10290000FC01848195812817390708F45BC08B810D
:102910009C81FC01208131818B819C81FC0133836E
:10292000228350C08B819C81FC0180A1482F50E004
:102930008B819C81FC01868197812D813E81B9012B
:102940000E9478468B819C81FC01268137818B8196
:102950009C81FC0180A1882F90E09195819591093F
:10296000280F391F8B819C81FC01378326838B8143
:102970009C81FC01268137818B819C81FC018081B7
:10298000918128173907A8F48B819C81FC0124814F
:1029900035818B819C81FC0180A1882F90E09195ED
:1029A00081959109280F391F8B819C81FC01378308
:1029B00026838F81823031F48A81882319F08A81BD
:1029C00081508A838A8121E0280F8B819C81FC01C0
:1029D000268F898127960FB6F894DEBF0FBECDBF34
:1029E000DF91CF910895CF93DF9300D01F92CDB7A1
:1029F000DEB79A8389837C836B8389819A81FC010A
:102A000080A18823C9F189819A81FC0126813781BF
:102A100089819A81FC0180A1882F90E0280F391FBD
:102A200089819A81FC013783268389819A81FC01FF
:102A30002681378189819A81FC01848195812817BB
:102A4000390750F089819A81FC0120813181898187
:102A50009A81FC013783268389819A81FC0180A1B8
:102A6000482F50E089819A81FC01268137818B8132
:102A70009C81B9010E94784600000F900F900F9042
:102A80000F90DF91CF910895CF93DF9300D01F92E5
:102A9000CDB7DEB79C838B830FB6F8940F928B81F2
:102AA0009C81FC0182A1898312C08B819C81FC01E5
:102AB0008389882381F08B819C8143960E94FD232A
:102AC000882311F00E94AB278981815089838981F5
:102AD00018165CF301C000008B819C812FEFFC0174
:102AE00022A30F900FBE0FB6F8940F928B819C819A
:102AF000FC0181A18A8312C08B819C81FC018085AD
:102B0000882381F08B819C8108960E94FD23882375
:102B100011F00E94AB278A8181508A838A8118161E
:102B20005CF301C000008B819C812FEFFC0121A38D
:102B30000F900FBE00000F900F900F900F90DF913D
:102B4000CF910895CF93DF9300D0CDB7DEB79B83AD
:102B50008A830FB6F8940F928A819B81FC01868D3F
:102B6000882319F481E0898301C019820F900FBE78
:102B700089810F900F900F90DF91CF910895CF939F
:102B8000DF9300D0CDB7DEB79B838A830FB6F8946E
:102B90000F928A819B81FC01268D8A819B81FC0199
:102BA000878D281719F481E0898301C019820F905D
:102BB0000FBE89810F900F900F90DF91CF910895F4
:102BC000CF93DF93CDB7DEB729970FB6F894DEBF6A
:102BD0000FBECDBF9C838B834D835E836F837887CD
:102BE00029878B819C819A8389830FB6F8940F92F1
:102BF00089819A81FC0181A18F3F21F489819A8189
:102C0000FC0111A289819A81FC0182A18F3F21F4EC
:102C100089819A81FC0112A20F900FBE89819A814D
:102C2000FC01868D882371F489819A81FC01739659
:102C30008D819E81AF81B8852985AC01BD01CF0111
:102C40000E94862389819A811FDF000029960FB692
:102C5000F894DEBF0FBECDBFDF91CF9108950F93E3
:102C6000CF93DF93CDB7DEB728970FB6F894DEBFCA
:102C70000FBECDBF9D838C837F836E8348878885FD
:102C8000813019F481E08B8301C01B828E819F818A
:102C9000892B21F481E090E09F838E838C819D813C
:102CA0009C01205F3F4F8C819D818217930768F4C0
:102CB0008C819D8101969D838C838C819D810F9653
:102CC0000E94550A9A83898302C01A8219828981D7
:102CD0009A81892B69F089819A81BC01615F7F4F5C
:102CE0002E813F814C815D8189819A810B8138D50C
:102CF00089819A8128960FB6F894DEBF0FBECDBFAA
:102D0000DF91CF910F9108950F93CF93DF9300D070
:102D10001F921F92CDB7DEB79D838C838C819D81DE
:102D20009B838A8319820FB6F8940F928A819B81C4
:102D3000DC0118968D919C911997892B39F58A8120
:102D40009B81FC0182859385892B01F58A819B817A
:102D5000DC011E96EC918A819B81DC0116962D91F7
:102D60003C9117978A819B81DC0114964D915C916F
:102D700015978A819B81DC011C966D917C911D9732
:102D80008A819B810E2FECD481E089830F900FBE46
:102D900089810F900F900F900F900F90DF91CF913E
:102DA0000F910895CF93DF9300D000D0CDB7DEB759
:102DB0009E838D838D819E819C838B838B819C815F
:102DC000FC01248135818B819C81FC018081918172
:102DD000820F931F9A8389838B819C81FC0182815E
:102DE000938129813A81A901481B590BCA019A8311
:102DF000898389819A8101979A8389838B819C81B8
:102E0000FC012481358189819A818217930768F0BA
:102E10008B819C81FC018481958129813A81A90162
:102E2000481B590BCA019A83898389819A81269606
:102E30000FB6F894DEBF0FBECDBFDF91CF910895DE
:102E4000AF92BF92CF92DF92EF92FF920F931F93B8
:102E5000CF93DF93CDB7DEB769970FB6F894DEBF97
:102E60000FBECDBF998B888B7B8B6A8B5D8B4C8B18
:102E70000E8B1F8B288F398F888999899E838D832C
:102E80001A8219828C899D899C838B838D819E8176
:102E9000FC0184819581019798878F838D819E8124
:102EA000FC018685882F90E081709927892B89F015
:102EB0008B819C8102969C838B832B813C818F81AB
:102EC00098858217930780F41E8A1F8A188E198EA0
:102ED0000BC02B813C818F8198858217930720F44A
:102EE0008F8198859C838B838E899F89A88DB98DCE
:102EF000892B8A2B8B2B09F447C0CE010B960E949D
:102F0000B0260FB6F8940F928D819E814BDF9A8385
:102F1000898329813A818B819C812817390770F434
:102F200060E080E090E00E94F3300E946F289C01F6
:102F30008D819E81FC013387228703C00F900FBED5
:102F400023C00F900FBE8E899F89A88DB98D5C011B
:102F50006D01E12CF12C00E010E0980140E050E020
:102F6000BA0180E00E94FF2B8D819E81FC011386B7
:102F700012869E012A5E3F4FCE010B96B9010E9438
:102F8000FB26882309F4BDCF89819A81892B29F4F6
:102F90008D819E8107DF9A838983EB81FC81298162
:102FA0003A814C895D896A897B898D819E818F01F7
:102FB000C2D09A87898789859A85892B41F18D812D
:102FC0009E818BD39C018D819E81FC01868197819E
:102FD00028173907E0F0A8D68D819E81FC018085F5
:102FE0009185892B99F08D819E81FC018085918549
:102FF000E12CF12C00E020E030E0A90160E00E942B
:10300000062D8D819E81FC01118610869AD68985B8
:103010009A8569960FB6F894DEBF0FBECDBFDF91DB
:10302000CF911F910F91FF90EF90DF90CF90BF90C5
:10303000AF900895CF92DF92EF92FF920F931F937C
:10304000CF93DF93CDB7DEB761970FB6F894DEBFAD
:103050000FBECDBF9B878A877D876C875F874E8732
:10306000398B288B8A859B859C838B838E859F8556
:103070009A8389838B819C81FC018685882F90E0CF
:1030800081709927892B29F089819A8102969A83E8
:1030900089838B819C8186DE9E838D83E981FA8181
:1030A0002D813E814E855F856C857D858B819C81E0
:1030B0008F0141D098878F838F819885892B51F11B
:1030C0008B819C810AD39C018B819C81FC01868130
:1030D000978128173907F0F019868B819C81FC01B4
:1030E00080859185892BB1F08B819C81FC01808545
:1030F0009185288939896901E12CF12C00E020E0D3
:1031000030E0A90160E00E94D72E8B819C81FC01F8
:10311000118610868F81988561960FB6F894DEBF70
:103120000FBECDBFDF91CF911F910F91FF90EF9018
:10313000DF90CF9008950F931F93CF93DF93CDB778
:10314000DEB761970FB6F894DEBF0FBECDBF99878B
:1031500088877B876A875D874C873F872E87198B97
:10316000088B8E859F85892B11F4198233C0888541
:103170009985FC018685882F90E081709927892B9D
:10318000A9F481E089838C859D859D838C838E85C0
:103190009F859F838E832C813D818E819F812817FF
:1031A000390708F4C9019D878C8714C02E853F8597
:1031B000888999892817390760F081E089839E0101
:1031C000245F3F4F8885998542E050E0B9014FD197
:1031D00001C019828981882359F04C855D852A8533
:1031E0003B8588859985B90142D19B838A8302C03A
:1031F0001B821A828A819B8161960FB6F894DEBF8A
:103200000FBECDBFDF91CF911F910F910895AF9267
:10321000BF92CF92DF92EF92FF920F931F93CF93C3
:10322000DF93CDB7DEB762970FB6F894DEBF0FBE5F
:10323000CDBF9A8789877C876B875E874D870F878D
:10324000188B298B3A8B89859A8598878F831A8268
:1032500019828F819885FC018685882F90E0817086
:103260009927892B29F082E090E09E838D8302C00C
:103270001E821D828F859889A989BA89892B8A2BFC
:103280008B2B09F441C00FB6F8940F928F8198856B
:1032900024D29C838B832B813C818D819E818217DC
:1032A000930768F060E080E090E00E94F3300E94B5
:1032B0006F289C018F819885FC01318720870F90B2
:1032C0000FBE2B813C818D819E818217930708F16F
:1032D0008F859889A989BA895C016D01E12CF12C4F
:1032E00000E010E0980140E050E0BA0180E00E9468
:1032F000FF2B8F819885FC01118610868F81988520
:10330000ECD19C838B8305C08F819885E6D19C830B
:103310008B832B813C818D819E818217930770F571
:10332000ED81FE812B813C814D855E856B857C85A1
:103330008F8198858F0135D09A83898389819A817D
:10334000892BE1F0F1D48F819885FC0182859385EA
:10335000892B99F08F819885FC0182859385E12CDA
:10336000F12C00E020E030E0A90160E00E94062D91
:103370008F819885FC0113861286E3D489819A8116
:1033800062960FB6F894DEBF0FBECDBFDF91CF912E
:103390001F910F91FF90EF90DF90CF90BF90AF9073
:1033A00008950F931F93CF93DF93CDB7DEB7629746
:1033B0000FB6F894DEBF0FBECDBF9A8789877C8792
:1033C0006B875E874D87388B2F871A8B098B89898E
:1033D0009A89892B81F189859A85FC018081918167
:1033E0009C838B832F85388949895A89BE01695FFF
:1033F0007F4F89859A85CAD08F8198859A838983E2
:103400002F85388989899A89A901481B590BCA01D6
:10341000988B8F8729813A818D859E8582179307A6
:1034200070F489859A852B813C81FC01318320834E
:103430001A82198204C08D859E859A8389832F857F
:10344000388949815A816B857C8589859A859ED08A
:103450009E838D838D819E8162960FB6F894DEBF28
:103460000FBECDBFDF91CF911F910F910895CF93E4
:10347000DF93CDB7DEB72E970FB6F894DEBF0FBE41
:10348000CDBF9A8789877C876B875E874D878985C3
:103490009A85FC01828193819A83898389859A85A3
:1034A000FC012481358189819A81A901481B590B2E
:1034B000CA019C838B838D859E859E838D832B8102
:1034C0003C818D819E812817390708F4C9019887AE
:1034D0008F8389859A85FC012485358589819A8128
:1034E000820F931F4F8158852B853C85B9010E941F
:1034F00078462D853E858F81988582179307A8F49D
:103500002D853E858F819885A901481B590B2B85F8
:103510003C858F819885280F391F89859A85FC0104
:1035200084859585B9010E94784629813A818D85E7
:103530009E85820F931F9A83898389859A85FC01D2
:103540002481358189819A818217930768F0898562
:103550009A85FC018481958129813A81A901481BC2
:10356000590BCA019A83898389859A8529813A8171
:10357000FC01338322838D859E852E960FB6F894A9
:10358000DEBF0FBECDBFDF91CF910895CF93DF9304
:10359000CDB7DEB766970FB6F894DEBF0FBECDBFCE
:1035A000988B8F877A8B698B5C8B4B8B3E8B2D8BAB
:1035B0008D899E899C838B838B899C899E838D8337
:1035C0002B813C818D819E812817390708F4C90120
:1035D00098878F838F819885892B09F473C08F8595
:1035E0009889FC01808191819A8389838F8598894C
:1035F000FC012481358189819A81A901481B590BDD
:10360000CA019A8789878F8198859C878B872985AE
:103610003A858B859C852817390708F4C9019E8750
:103620008D878F859889FC012485358589819A81CC
:10363000280F391F4D855E8589899A89B9010E94B5
:1036400078462F8138858D859E8582179307A0F453
:103650002F8138858D859E85A901481B590B8F8543
:103660009889FC016485758529893A898D859E85AF
:10367000820F931F0E94784629813A818F81988515
:10368000820F931F9A8389838F859889FC012481F7
:10369000358189819A818217930768F08F8598898F
:1036A000FC018481958129813A81A901481B590B2C
:1036B000CA019A8389838F85988929813A81FC017F
:1036C000318320838F81988566960FB6F894DEBF8C
:1036D0000FBECDBFDF91CF910895CF93DF9300D080
:1036E0001F92CDB7DEB79C838B838B819C81FC01BD
:1036F000248135818B819C81FC0182819381820FA1
:10370000931F9A8389838B819C81FC0180819181A5
:1037100029813A81A901481B590BCA019A838983DF
:103720008B819C81FC012481358189819A8182175A
:10373000930768F08B819C81FC01848195812981AC
:103740003A81A901481B590BCA019A83898389814F
:103750009A810F900F900F900F90DF91CF91089565
:103760000F93CF93DF93CDB7DEB729970FB6F894B9
:10377000DEBF0FBECDBF9A8389837C836B835E835C
:103780004D8338872F83098789819A814FE050E0E4
:1037900060E070E00E94814689819A812B813C81A2
:1037A000FC013587248789819A812D813E81FC0126
:1037B0003583248389819A812F813885FC01378361
:1037C000268389819A812985FC0126870000299614
:1037D0000FB6F894DEBF0FBECDBFDF91CF910F9132
:1037E0000895AF92BF92CF92DF92EF92FF920F9324
:1037F000CF93DF93CDB7DEB760970FB6F894DEBFF7
:103800000FBECDBF9F838E83798768875B874A878A
:103810003D872C870E87F88AEF868A859B850E94D4
:10382000550A9D838C838C819D81892BB9F084E31B
:1038300090E00E94550A9A83898389819A81892B15
:1038400041F089819A812C813D81FC01348F238F45
:1038500007C08C819D810E946B0B02C01A82198265
:1038600089819A81892BC1F0A981BA81EF85F88974
:103870002C853D854A855B85688579858E819F810C
:10388000A12CB12C6D017F010E8519D089819A81FF
:1038900005D181E08B8302C08FEF8B838B81609693
:1038A0000FB6F894DEBF0FBECDBFDF91CF910F9161
:1038B000FF90EF90DF90CF90BF90AF900895AF92C0
:1038C000BF92CF92DF92EF92FF920F931F93CF930D
:1038D000DF93CDB7DEB762970FB6F894DEBF0FBEA9
:1038E000CDBF9D838C837F836E83598748873B87B9
:1038F0002A870C87FE86ED86D88ACF86BA8AA98A5F
:103900008F859889FC01838D948D28853985A9013F
:1039100065EA70E00E9481468F859889FC01238DBD
:10392000348D888599850197820F931F9B838A83A5
:103930008E819F81892B69F1198221C08981882F0D
:1039400090E02981222F30E04E815F81240F351FC6
:10395000F90140812F853889820F931F4D96FC0114
:1039600040838981882F90E02E813F81820F931FB1
:10397000FC018081882339F089818F5F8983898167
:103980008031E0F201C000008F859889FC0114A607
:1039900004C08F859889FC01158E8C858A3010F0C3
:1039A00089E08C878F8598892C85FC01228F8F85F3
:1039B00098892C85FC0125A78F859889FC0116A67E
:1039C0008F85988902960E94480D8F8598890E965A
:1039D0000E94480D8F8598892F853889FC0133878F
:1039E00022878C85882F90E0A0E0B0E02AE030E0CC
:1039F00040E050E079018A01E81AF90A0A0B1B0B32
:103A0000D801C7012F853889F90186879787A08B50
:103A1000B18B8F8598892F853889FC01378B268B50
:103A20008F8598898F9644E050E060E070E00E94B6
:103A300081468F859889C39641E050E060E070E050
:103A40000E9481464A855B852C813D818A819B81CC
:103A5000B9010E94390E9C018F859889FC01318340
:103A600020838D859E85892B39F08D859E852F85B8
:103A70003889FC0131832083000062960FB6F894E8
:103A8000DEBF0FBECDBFDF91CF911F910F91FF9091
:103A9000EF90DF90CF90BF90AF900895CF93DF93DA
:103AA00000D01F92CDB7DEB79C838B830FB6F894FE
:103AB0000F9280913F148F5F80933F1480919313F6
:103AC00090919413892B69F48B819C81909394132A
:103AD0008093931380913F148130C9F40E94B627DC
:103AE00016C080914514882391F48091931390918E
:103AF0009413FC01228D8B819C81FC01828D8217A5
:103B000030F08B819C8190939413809393138091D8
:103B10004C148F5F80934C148B819C81FC01928D9F
:103B200080914414891730F48B819C81FC01828D33
:103B3000809344148B819C81FC01828D282F30E07E
:103B40004BE0429FC001439F900D11248A569C4E2A
:103B5000FC01808191819A8389838B819C81298159
:103B60003A81FC013783268389819A81FC01268171
:103B700037818B819C81FC013187208789819A81E3
:103B8000FC01868197812B813C812E5F3F4FFC0198
:103B9000358324838B819C819C012E5F3F4F8981DB
:103BA0009A81FC01378326838B819C81FC01828D65
:103BB000282F30E04BE0429FC001439F900D11241D
:103BC0009C012B563C4E8B819C81FC0135872487C0
:103BD0008B819C81FC01828D882F90E04BE0489F77
:103BE0009001499F300D11242B563C4EF901208144
:103BF00041E0420F5BE0589F9001599F300D112426
:103C0000C9018B569C4EFC0140830F900FBE8091E2
:103C10004514882371F08091931390919413FC01C3
:103C2000228D8B819C81FC01828D281710F40E94CB
:103C3000FF0E00000F900F900F900F90DF91CF912B
:103C40000895CF93DF9300D01F921F92CDB7DEB7B8
:103C50006A837B838C839D8319828A819B81AC815B
:103C6000BD81892B8A2B8B2B61F05ED08A819B8151
:103C7000AC81BD8140E0BC01CD010E94323161D0F8
:103C800089838981882311F40E94FF0E00000F9020
:103C90000F900F900F900F90DF91CF910895EF92BA
:103CA000FF920F93CF93DF931F92CDB7DEB70F2E06
:103CB000F1E5EF2EF4E1FF2EF02D00E020E030E002
:103CC00040EC50E064E276E08CE790E08ADD8983A6
:103CD0008981813019F40E9415328983898181306C
:103CE000C9F4F8948FEF9FEFDC0180934D1490930B
:103CF0004E14A0934F14B093501481E08093451458
:103D000010924014109241141092421410924314D5
:103D10000E94C70E8091060200000F90DF91CF91A4
:103D20000F91FF90EF900895CF93DF93CDB7DEB75B
:103D3000809153148F5F809353140000DF91CF91D3
:103D40000895CF93DF93CDB7DEB72D970FB6F894D4
:103D5000DEBF0FBECDBF1A8219821B820FB6F89448
:103D60000F92809153148150809353148091531477
:103D7000882309F069C180913F14882309F464C144
:103D80001BC18091241490912514FC01808591859C
:103D90009A83898389819A81FC01808D918D99878D
:103DA000888789819A81FC018289938929813A8156
:103DB000F90124893589FC013783268389819A8119
:103DC000FC018489958929813A81F9012289338905
:103DD000FC013583248388859985FC01218132810A
:103DE00089819A810E962817390751F489819A8121
:103DF000FC012489358988859985FC0132832183DA
:103E000089819A81FC01118E108E88859985FC012B
:103E100080812FEF280F88859985FC012083898177
:103E20009A81FC01848595859B878A8789819A81FF
:103E3000FC018681978129813A81F90120853185AC
:103E4000FC013783268389819A81FC0180859185D5
:103E500029813A81F90126813781FC013583248348
:103E60008A859B85FC012181328189819A81029614
:103E70002817390751F489819A81FC012085318501
:103E80008A859B85FC013283218389819A81FC018B
:103E9000158614868A859B85FC0180812FEF280F6B
:103EA0008A859B85FC01208389819A81FC01928D02
:103EB00080914414891730F489819A81FC01828DA4
:103EC0008093441489819A81FC01828D282F30E0EF
:103ED0004BE0429FC001439F900D11248A569C4E97
:103EE000FC01808191819D878C8789819A812C85B5
:103EF0003D85FC01378326838C859D85FC012681C9
:103F0000378189819A81FC01318720878C859D8545
:103F1000FC018681978129813A812E5F3F4FFC0108
:103F20003583248389819A819C012E5F3F4F8C8544
:103F30009D85FC013783268389819A81FC01828DCE
:103F4000282F30E04BE0429FC001439F900D112489
:103F50009C012B563C4E89819A81FC013587248730
:103F600089819A81FC01828D882F90E04BE0489FE7
:103F70009001499F300D11242B563C4EF9012081B0
:103F800041E0420F5BE0589F9001599F300D112492
:103F9000C9018B569C4EFC01408389819A81FC01AA
:103FA000228D8091931390919413FC01828D281798
:103FB00018F081E080934A1480911D14882309F041
:103FC000E0CE89819A81892B11F00E943F2880914F
:103FD000461490914714A0914814B09149148C83D1
:103FE0009D83AE83BF838C819D81AE81BF81892BF0
:103FF0008A2B8B2B09F158D0882319F081E080930C
:104000004A148C819D81AE81BF810197A109B109BC
:104010008C839D83AE83BF838C819D81AE81BF8164
:10402000892B8A2B8B2B39F7109246141092471448
:10403000109248141092491480914A14882321F058
:1040400081E08B830E94FF0E0F900FBE8B812D9617
:104050000FB6F894DEBF0FBECDBFDF91CF910895AC
:10406000CF93DF9300D01F92CDB7DEB70FB6F89491
:104070000F928091401490914114A0914214B091FC
:10408000431489839A83AB83BC830F900FBE8981CD
:104090009A81AB81BC81BC01CD010F900F900F9034
:1040A0000F90DF91CF910895CF93DF93CDB7DEB717
:1040B00063970FB6F894DEBF0FBECDBF1982809113
:1040C0005314882309F0CCC180914014909141147D
:1040D000A0914214B09143140196A11DB11D8A8391
:1040E0009B83AC83BD838A819B81AC81BD8180939E
:1040F000401490934114A0934214B09343148A81C6
:104100009B81AC81BD81892B8A2B8B2BD1F4809133
:10411000191490911A149F838E8380911B1490918F
:104120001C1490931A14809319148E819F8190937C
:104130001C1480931B1480914B148F5F80934B143D
:104140009ED780914D1490914E14A0914F14B09130
:1041500050142A813B814C815D81281739074A0719
:104160005B0708F460C18091191490911A14FC0146
:104170008081882361F48FEF9FEFDC0180934D14E1
:1041800090934E14A0934F14B09350144CC180914F
:10419000191490911A14FC0187819085FC01808587
:1041A00091859987888788859985FC01828193818B
:1041B000A481B5818A879B87AC87BD872A813B8193
:1041C0004C815D818A859B85AC85BD852817390723
:1041D0004A075B0768F48A859B85AC85BD8580931B
:1041E0004D1490934E14A0934F14B09350141BC1D0
:1041F00088859985FC01848595859F878E8788852C
:104200009985FC018681978128853985F90120856A
:104210003185FC013783268388859985FC0180855B
:10422000918528853985F90126813781FC013583FF
:1042300024838E859F85FC01218132818885998523
:1042400002962817390751F488859985FC01208545
:1042500031858E859F85FC013283218388859985F0
:10426000FC01158614868E859F85FC0180812FEFC9
:10427000280F8E859F85FC01208388859985FC0108
:10428000808D918D892B09F445C088859985FC0125
:10429000808D918D998B888B88859985FC01828989
:1042A000938928853985F90124893589FC0137836B
:1042B000268388859985FC01848995892885398597
:1042C000F90122893389FC013583248388899989FE
:1042D000FC0121813281888599850E96281739073E
:1042E00051F488859985FC012489358988899989C3
:1042F000FC013283218388859985FC01118E108E03
:1043000088899989FC0180812FEF280F88899989F4
:10431000FC01208388859985FC01928D809144144D
:10432000891730F488859985FC01828D8093441427
:1043300088859985FC01828D282F30E04BE0429FD3
:10434000C001439F900D11248A569C4EFC01808130
:1043500091819B8B8A8B888599852A893B89FC0171
:10436000378326838A899B89FC012681378188854A
:104370009985FC01318720878A899B89FC01868188
:104380009781288539852E5F3F4FFC013583248333
:10439000888599859C012E5F3F4F8A899B89FC0106
:1043A0003783268388859985FC01828D282F30E00C
:1043B0004BE0429FC001439F900D11249C012B565E
:1043C0003C4E88859985FC013587248788859985A9
:1043D000FC01828D882F90E04BE0489F9001499F1F
:1043E000300D11242B563C4EF901208141E0420F43
:1043F0005BE0589F9001599F300D1124C9018B56E5
:104400009C4EFC01408388859985FC01228D80911A
:10441000931390919413FC01828D281708F4A3CE76
:1044200081E08983A0CE8091931390919413FC0135
:10443000828D282F30E04BE0429FC001439F900DBA
:1044400011248B569C4EFC018081823010F081E05B
:10445000898380914A148823B1F081E0898313C055
:104460008091461490914714A0914814B09149143A
:104470000196A11DB11D8093461490934714A093FB
:104480004814B0934914898163960FB6F894DEBF3F
:104490000FBECDBFDF91CF910895CF93DF9300D0B2
:1044A000CDB7DEB780915314882321F081E080934B
:1044B0004A1478C010924A148091931390919413E7
:1044C000FC01208131818091931390919413FC0120
:1044D000838D948D8217930770F080919313909140
:1044E00094139C01235E3F4F8091931390919413FA
:1044F000B9010E94AA3780914414898303C089813D
:10450000815089838981282F30E04BE0429FC00190
:10451000439F900D11248B569C4EFC018081882373
:1045200071F38981282F30E04BE0429FC001439F07
:10453000900D11248B569C4E9B838A838A819B818C
:10454000FC0181819281FC01248135818A819B81DA
:10455000FC01328321838A819B81FC01218132818C
:104560008A819B8103962817390769F48A819B8188
:10457000FC0181819281FC01248135818A819B81AA
:10458000FC01328321838A819B81FC01818192819C
:10459000FC01808591859093941380939313898176
:1045A0008093441400000F900F900F90DF91CF91F3
:1045B0000895CF93DF9300D000D0CDB7DEB79A83B4
:1045C00089834B835C836D837E8380919313909169
:1045D00094139C01225F3F4F89819A81B9010E9407
:1045E0005B0D8B819C81AD81BE8141E0BC01CD0121
:1045F0000E943231000026960FB6F894DEBF0FBE3F
:10460000CDBFDF91CF9108950F931F93CF93DF9389
:10461000CDB7DEB72C970FB6F894DEBF0FBECDBF77
:104620009C838B834D835E836F83788709871A878A
:104630002B873C8720919313309194138D819E8119
:10464000AF81B885B068F90186879787A08BB18B59
:104650008B819C81FC01818192819A8389838091E5
:1046600093139091941329813A81FC01338B228B0F
:10467000809193139091941329813A81F9012681B5
:104680003781FC01358B248B89819A81FC018681DD
:1046900097812091931330919413225F3F4FFC0137
:1046A0003583248380919313909194139C01225F0E
:1046B0003F4F89819A81FC01378326838091931330
:1046C000909194132B813C81FC01318F208F8B8141
:1046D0009C81FC01808121E0280F8B819C81FC0161
:1046E000208389859A85AB85BC8541E0BC01CD01DD
:1046F0000E94323100002C960FB6F894DEBF0FBE38
:10470000CDBFDF91CF911F910F910895CF93DF938C
:10471000CDB7DEB729970FB6F894DEBF0FBECDBF79
:104720009C838B834D835E836F83788729878B81FE
:104730009C81FC01818192819A838983809193136A
:104740009091941329813A81FC01338B228B8091C3
:1047500093139091941329813A81F901268137812D
:10476000FC01358B248B89819A81FC01868197819C
:104770002091931330919413225F3F4FFC013583B6
:10478000248380919313909194139C01225F3F4F57
:1047900089819A81FC0137832683809193139091BC
:1047A00094132B813C81FC01318F208F8B819C8164
:1047B000FC01808121E0280F8B819C81FC012083FA
:1047C0008985882339F08FEF9FEFDC018D839E83ED
:1047D000AF83B8878D819E81AF81B8854985BC0143
:1047E000CD010E943231000029960FB6F894DEBF49
:1047F0000FBECDBFDF91CF910895CF93DF93CDB79B
:10480000DEB72D970FB6F894DEBF0FBECDBF9D87E4
:104810008C878C859D85FC0187819085FC01808536
:1048200091859B838A838A819B81FC01808D918DF8
:104830009D838C838A819B81FC01828993892A8153
:104840003B81F90124893589FC01378326838A81DC
:104850009B81FC01848995892A813B81F901228908
:104860003389FC01358324838C819D81FC01218166
:1048700032818A819B810E962817390751F48A81EB
:104880009B81FC01248935898C819D81FC013283C7
:1048900021838A819B81FC01118E108E8C819D81E8
:1048A000FC0180812FEF280F8C819D81FC012083EA
:1048B00080915314882309F0BFC08A819B81FC0139
:1048C000848595859F838E838A819B81FC01868167
:1048D00097812A813B81F90120853185FC0137834D
:1048E00026838A819B81FC01808591852A813B8179
:1048F000F90126813781FC01358324838E819F81D4
:10490000FC01218132818A819B8102962817390717
:1049100051F48A819B81FC01208531858E819F81A4
:10492000FC01328321838A819B81FC0115861486D8
:104930008E819F81FC0180812FEF280F8E819F81C6
:10494000FC0120838A819B81FC01928D809144141B
:10495000891730F48A819B81FC01828D80934414F5
:104960008A819B81FC01828D282F30E04BE0429FA1
:10497000C001439F900D11248A569C4EFC018081FA
:104980009181998788878A819B8128853985FC0157
:104990003783268388859985FC01268137818A8122
:1049A0009B81FC013187208788859985FC01868160
:1049B00097812A813B812E5F3F4FFC013583248301
:1049C0008A819B819C012E5F3F4F88859985FC01E0
:1049D000378326838A819B81FC01828D282F30E0DA
:1049E0004BE0429FC001439F900D11249C012B5628
:1049F0003C4E8A819B81FC01358724878A819B817B
:104A0000FC01828D882F90E04BE0489F9001499FE8
:104A1000300D11242B563C4EF901208141E0420F0C
:104A20005BE0589F9001599F300D1124C9018B56AE
:104A30009C4EFC01408339C080911E1490911F143C
:104A40009B878A878A819B812A853B85FC01338BE2
:104A5000228B8A859B85FC01268137818A819B81F7
:104A6000FC01358B248B8A859B85FC01868197818F
:104A70002A813B81225F3F4FFC01358324838A8159
:104A80009B819C01225F3F4F8A859B85FC01378378
:104A900026838A819B812DE134E1FC01318F208FB7
:104AA00080911D148F5F80931D148A819B81FC016E
:104AB000228D8091931390919413FC01828D821723
:104AC00030F481E0898381E080934A1401C0198227
:104AD00089812D960FB6F894DEBF0FBECDBFDF9152
:104AE000CF910895CF93DF93CDB7DEB72E970FB652
:104AF000F894DEBF0FBECDBF9A8789874B875C874E
:104B00006D877E878B859C85AD85BE85B068298540
:104B10003A85F90180839183A283B38389859A853D
:104B2000FC01808591859A83898389859A85FC011A
:104B3000828593859C838B8389859A85FC018481FA
:104B4000958129853A85F90126813781FC013783D2
:104B5000268389859A85FC018681978129853A85F6
:104B6000F90124813581FC01358324838B819C816B
:104B7000FC012181328189859A852817390751F4F2
:104B800089859A85FC01268137818B819C81FC0176
:104B90003283218389859A85FC01138612868B8155
:104BA0009C81FC0180812FEF280F8B819C81FC016F
:104BB000208389819A81FC01848595859E838D83DC
:104BC00089819A81FC018681978129813A81F90145
:104BD00020853185FC013783268389819A81FC01F8
:104BE0008085918529813A81F90126813781FC01EF
:104BF000358324838D819E81FC01218132818981CD
:104C00009A8102962817390751F489819A81FC010B
:104C1000208531858D819E81FC01328321838981AC
:104C20009A81FC01158614868D819E81FC0180810C
:104C30002FEF280F8D819E81FC01208389819A812D
:104C4000FC01928D80914414891730F489819A81F6
:104C5000FC01828D8093441489819A81FC01828DAC
:104C6000282F30E04BE0429FC001439F900D11245C
:104C70008A569C4EFC018081918198878F8389811F
:104C80009A812F813885FC01378326838F8198850F
:104C9000FC012681378189819A81FC013187208737
:104CA0008F819885FC018681978129813A812E5FC9
:104CB0003F4FFC013583248389819A819C012E5FBB
:104CC0003F4F8F819885FC013783268389819A81A4
:104CD000FC01828D282F30E04BE0429FC001439FB2
:104CE000900D11249C012B563C4E89819A81FC0128
:104CF0003587248789819A81FC01828D882F90E0F5
:104D00004BE0489F9001499F300D11242B563C4E9B
:104D1000F901208141E0420F5BE0589F9001599FCB
:104D2000300D1124C9018B569C4EFC0140838981B2
:104D30009A81FC01228D8091931390919413FC0130
:104D4000828D821718F481E080934A1400002E9619
:104D50000FB6F894DEBF0FBECDBFDF91CF9108959F
:104D6000CF93DF931F921F92CDB7DEB79A838983CB
:104D70000FB6F8940F9220914B1489819A81FC010F
:104D800020838091401490914114A0914214B091DD
:104D9000431429813A81F90181839283A383B483E7
:104DA0000F900FBE00000F900F90DF91CF910895EC
:104DB000CF93DF931F921F92CDB7DEB79A8389837B
:104DC00020914B1489819A81FC01208380914014A9
:104DD00090914114A0914214B091431429813A81D9
:104DE000F90181839283A383B48300000F900F9015
:104DF000DF91CF910895EF92FF920F931F93CF937E
:104E0000DF93CDB7DEB72D970FB6F894DEBF0FBE98
:104E1000CDBF9B878A877D876C870FB6F8940F92EA
:104E20008091401490914114A0914214B091431488
:104E30008A839B83AC83BD838A859B85FC018181AA
:104E40009281A381B4812A813B814C815D8179016A
:104E50008A01E81AF90A0A0B1B0BD801C7018E83D5
:104E60009F83A887B9878C859D85FC01808191816E
:104E7000A281B3818F3F9F4FAF4FBF4F11F4198273
:104E80005AC08A859B85FC01908180914B149817AC
:104E9000D1F08A859B85FC01218132814381548137
:104EA0008A819B81AC81BD8182179307A407B507D6
:104EB00050F081E089838C859D85FC0110821182F0
:104EC0001282138238C08C859D85FC01208131813E
:104ED000428153818E819F81A885B985821793076E
:104EE000A407B507F8F48C859D85FC0120813181EC
:104EF000428153818E819F81A885B98579018A017C
:104F0000E81AF90A0A0B1B0BD801C7012C853D854D
:104F1000F90180839183A283B3838A859B8548DFCF
:104F2000198209C08C859D85FC0110821182128234
:104F3000138281E089830F900FBE89812D960FB671
:104F4000F894DEBF0FBECDBFDF91CF911F910F91BF
:104F5000FF90EF900895CF93DF93CDB7DEB781E058
:104F600080934A140000DF91CF910895CF93DF938F
:104F70001F92CDB7DEB7198210C08981282F30E08B
:104F80004BE0429FC001439F900D11248B569C4ED5
:104F90000E940E0D89818F5F898389818A3068F331
:104FA00083E094E10E940E0D8EE094E10E940E0DCC
:104FB0008DE194E10E940E0D88E294E10E940E0DB5
:104FC00084E394E10E940E0D83E094E190931A141F
:104FD000809319148EE094E190931C1480931B1419
:104FE00000000F90DF91CF910895CF93DF931F9230
:104FF0001F92CDB7DEB720C00FB6F8940F92809104
:105000002F1490913014FC01808591859A838983B7
:1050100089819A8102960E94E20D80913F1481500D
:1050200080933F14809133148150809333140F90F8
:105030000FBE89819A810AD0809133148823E1F6CA
:1050400000000F900F90DF91CF910895CF93DF93E1
:105050001F921F92CDB7DEB79A83898389819A8187
:10506000FC01838D948D0E946B0B89819A810E9433
:105070006B0B00000F900F90DF91CF910895CF93AD
:10508000DF93CDB7DEB78091191490911A14FC010B
:105090008081882361F48FEF9FEFDC0180934D14B2
:1050A00090934E14A0934F14B093501414C0809159
:1050B000191490911A14FC0187819085FC0180815C
:1050C0009181A281B38180934D1490934E14A0934B
:1050D0004F14B09350140000DF91CF910895CF93F7
:1050E000DF931F921F92CDB7DEB7809193139091FB
:1050F00094139A83898389819A810F900F90DF910D
:10510000CF910895CF93DF931F92CDB7DEB78091F3
:105110004514882319F481E0898308C080915314D1
:10512000882319F482E0898301C0198289810F9054
:10513000DF91CF910895EF92FF920F931F93CF933A
:10514000DF93CDB7DEB727970FB6F894DEBF0FBE5B
:10515000CDBF9F838E838E819F819B838A8319829B
:105160008E819F81892B09F4EEC08A819B81FC018D
:10517000228D8091931390919413FC01828D2817B6
:1051800008F0D3C08A819B81FC0186859785A08920
:10519000B189BB23ECF08091931390919413FC019F
:1051A000828D882F90E0A0E0B0E02AE030E040E07F
:1051B00050E079018A01E81AF90A0A0B1B0BD801A1
:1051C000C7012A813B81F90186879787A08BB18B24
:1051D0008A819B81FC01248535858A819B81FC0124
:1051E000828D482F50E06BE0649FC001659F900D59
:1051F00011248B569C4E2817390709F089C08A81E3
:105200009B8102960E94E20D8091931390919413DA
:10521000FC01228D8A819B81FC01228F8A819B81E6
:10522000FC01928D80914414891730F48A819B810E
:10523000FC01828D809344148A819B81FC01828DC4
:10524000282F30E04BE0429FC001439F900D112476
:105250008A569C4EFC01808191819D838C838A813A
:105260009B812C813D81FC01378326838C819D812C
:10527000FC01268137818A819B81FC01318720874F
:105280008C819D81FC01868197812A813B812E5FE3
:105290003F4FFC01358324838A819B819C012E5FD3
:1052A0003F4F8C819D81FC01378326838A819B81BE
:1052B000FC01828D282F30E04BE0429FC001439FCC
:1052C000900D11249C012B563C4E8A819B81FC0140
:1052D000358724878A819B81FC01828D882F90E00D
:1052E0004BE0489F9001499F300D11242B563C4EB6
:1052F000F901208141E0420F5BE0589F9001599FE6
:10530000300D1124C9018B569C4EFC0140830AC00C
:105310008091931390919413FC01228D8A819B813B
:10532000FC01228F81E089830EC08A819B81FC0170
:1053300025A58091931390919413FC01828D2817D9
:1053400010F481E08983898127960FB6F894DEBF37
:105350000FBECDBFDF91CF911F910F91FF90EF90C6
:105360000895EF92FF920F931F93CF93DF93CDB7E2
:10537000DEB727970FB6F894DEBF0FBECDBF9F8371
:105380008E838E819F819B838A8319828E819F81E8
:10539000892B09F4BFC08A819B81FC0186A52FEF70
:1053A000280F8A819B81FC0126A78A819B81FC01B1
:1053B000228D8A819B81FC0185A5281709F4AAC04A
:1053C0008A819B81FC0186A5882309F0A3C08A817C
:1053D0009B8102960E94E20D8A819B81FC0125A59A
:1053E0008A819B81FC01228F8A819B81FC01828DB5
:1053F000882F90E0A0E0B0E02AE030E040E050E00C
:1054000079018A01E81AF90A0A0B1B0BD801C701B6
:105410002A813B81F90186879787A08BB18B8A818E
:105420009B81FC01928D80914414891730F48A810C
:105430009B81FC01828D809344148A819B81FC01B5
:10544000828D282F30E04BE0429FC001439F900D9A
:1054500011248A569C4EFC01808191819D838C830E
:105460008A819B812C813D81FC01378326838C813D
:105470009D81FC01268137818A819B81FC013187D6
:1054800020878C819D81FC01868197812A813B81C7
:105490002E5F3F4FFC01358324838A819B819C01D1
:1054A0002E5F3F4F8C819D81FC01378326838A814B
:1054B0009B81FC01828D282F30E04BE0429FC00190
:1054C000439F900D11249C012B563C4E8A819B8159
:1054D000FC01358724878A819B81FC01828D882F7E
:1054E00090E04BE0489F9001499F300D11242B56CE
:1054F0003C4EF901208141E0420F5BE0589F900152
:10550000599F300D1124C9018B569C4EFC014083DC
:1055100081E08983898127960FB6F894DEBF0FBE9C
:10552000CDBFDF91CF911F910F91FF90EF90089524
:10553000EF92FF920F931F93CF93DF93CDB7DEB718
:105540002A970FB6F894DEBF0FBECDBF9987888724
:105550006A87888599859B838A8381E08C83888587
:105560009985892B09F4DCC08A819B81FC0195A572
:105570008A85981718F48A85898305C08A819B815A
:10558000FC0185A589838A819B81FC01928D89819B
:10559000981709F4C5C08A819B81FC0196A58C816E
:1055A000981709F0BDC08A819B81FC01828D8D8393
:1055B0008A819B812981FC01228F8A819B81FC0148
:1055C00086859785A089B189BB23C4F08981882FFE
:1055D00090E0A0E0B0E02AE030E040E050E0790167
:1055E0008A01E81AF90A0A0B1B0BD801C7012A81A4
:1055F0003B81F90186879787A08BB18B8A819B813C
:10560000FC01248535858D81482F50E06BE0649F37
:10561000C001659F900D11248B569C4E28173907A9
:1056200009F07EC08A819B8102960E94E20D8A81E8
:105630009B81FC01928D80914414891730F48A81FA
:105640009B81FC01828D809344148A819B81FC01A3
:10565000828D282F30E04BE0429FC001439F900D88
:1056600011248A569C4EFC01808191819F838E83F8
:105670008A819B812E813F81FC01378326838E8125
:105680009F81FC01268137818A819B81FC013187C2
:1056900020878E819F81FC01868197812A813B81B1
:1056A0002E5F3F4FFC01358324838A819B819C01BF
:1056B0002E5F3F4F8E819F81FC01378326838A8135
:1056C0009B81FC01828D282F30E04BE0429FC0017E
:1056D000439F900D11249C012B563C4E8A819B8147
:1056E000FC01358724878A819B81FC01828D882F6C
:1056F00090E04BE0489F9001499F300D11242B56BC
:105700003C4EF901208141E0420F5BE0589F90013F
:10571000599F300D1124C9018B569C4EFC014083CA
:1057200000002A960FB6F894DEBF0FBECDBFDF9102
:10573000CF911F910F91FF90EF900895EF92FF92FC
:105740000F931F93CF93DF9300D01F92CDB7DEB797
:105750008091931390919413FC0186859785A0897D
:10576000B18989839A83AB83BC83609193137091D1
:1057700094138091931390919413FC01828D882F40
:1057800090E0A0E0B0E02AE030E040E050E07901B5
:105790008A01E81AF90A0A0B1B0BD801C701FB01A1
:1057A00086879787A08BB18B89819A81AB81BC81D9
:1057B000BC01CD010F900F900F900F90DF91CF9112
:1057C0001F910F91FF90EF900895CF93DF93CDB786
:1057D000DEB78091931390919413892B49F08091B7
:1057E000931390919413FC0126A52F5FFC0126A72B
:1057F0008091931390919413DF91CF910895AF927C
:10580000BF92CF92DF92EF92FF920F931F93CF93AD
:10581000DF93CDB7DEB760970FB6F894DEBF0FBE4B
:10582000CDBF8A834B835C836D837E830F83188710
:1058300029873A87FC86EB86AD86BE86CF86D88AD6
:105840000FB6F8940F9220919313309194138A819C
:10585000882F90E0820F931FC396DC018C918230D9
:1058600009F44FC060919313709194138A81E82FCB
:10587000F0E08A81882F90E0880F991F880F991F88
:10588000860F971F8F96DC012D913D914D915C9174
:105890008B819C81AD81BE8180959095A095B095BE
:1058A00082239323A423B5239F01220F331F220FAA
:1058B000331F260F371F215D3F4FF90180839183EE
:1058C000A283B38320919313309194138A81882FFC
:1058D00090E0820F931FC39621E0DC012C938D850D
:1058E0009E85AF85B889892B8A2B8B2B51F08D85AE
:1058F0009E85AF85B88941E0BC01CD01B3D40E943B
:10590000FF0E0F900FBE0FB6F8940F928B859C85FB
:10591000892BD1F020919313309194138A81882F91
:1059200090E0880F991F880F991F820F931F8F9601
:10593000FC0180819181A281B3812B853C85F90195
:1059400080839183A283B383209193133091941326
:105950008A81882F90E0820F931FC396DC018C917F
:10596000823011F0198232C06091931370919413B8
:105970008A81E82FF0E08A81882F90E0880F991FB4
:10598000880F991F860F971F8F96DC012D913D91EF
:105990004D915C918F819885A985BA858095909568
:1059A000A095B09582239323A423B5239F01220FB2
:1059B000331F220F331F260F371F215D3F4FF90181
:1059C00080839183A283B38381E0898320919313A1
:1059D000309194138A81882F90E0820F931FC39691
:1059E000DC011C920F900FBE898160960FB6F8946F
:1059F000DEBF0FBECDBFDF91CF911F910F91FF9002
:105A0000EF90DF90CF90BF90AF900895EF92FF920C
:105A10000F93CF93DF93CDB7DEB762970FB6F894AD
:105A2000DEBF0FBECDBF9A8789876B872C873D87E6
:105A30004E875F87088BFA8AE98A81E089838985A6
:105A40009A859B838A830FB6F8940F9289899A89E5
:105A5000892BC1F08B85882F90E02A813B81880FAC
:105A6000991F880F991F820F931F8F96FC018081C9
:105A70009181A281B38129893A89F9018083918337
:105A8000A283B3838B85882F90E02A813B81820F8C
:105A9000931FC396FC0180818C838B85882F90E0B7
:105AA0002A813B81820F931FC39622E0FC01208351
:105AB0008889882F90E08230910509F43EC08330B8
:105AC000910534F4009709F492C0019749F090C011
:105AD0008330910509F456C0049709F46BC088C05F
