:10000000B0C00000CFC00000CDC00000CBC00000D9
:10001000C9C00000C7C00000C5C00000C3C00000C8
:10002000C1C00000BFC00000BDC00000BBC00000D8
:100030000C947608B7C00000B5C00000B3C0000043
:10004000B1C00000AFC00000ADC00000ABC00000F8
:10005000A9C00000A7C00000A5C00000A3C0000008
:10006000A1C000000C94FB330C944D349BC00000E5
:1000700099C0000097C0000095C0000093C0000028
:1000800091C000008FC000008DC000008BC0000038
:100090000C9491340C94E33485C0000083C00000BC
:1000A00081C000007FC000007DC000007BC0000058
:1000B00079C0000077C0000075C0000073C0000068
:1000C00071C000006FC000006DC000000C942735A7
:1000D0000C94793567C000000C94BD350C940F3634
:1000E00061C000003029302930298F299A29D1296F
:1000F000302930298F299A29CF93DF931F921F929D
:10010000CDB7DEB79A8389830E94731E80910C114C
:10011000823008F000D70E94FE2AF6CFCF93DF93FB
:10012000CDB7DEB727970FB6F894DEBF0FBECDBFB1
:100130009F838E83CE0105960E94C227DC01CB01EE
:1001400089839A83AB83BC832D8189819A81AB811A
:10015000BC81422FBC01CD010E9443270E94E928A7
:10016000E9CF11241FBECFEFD1E2DEBFCDBF00E04B
:100170000CBF16E0A0E0B2E0E0E6FCE700E00BBF59
:1001800002C007900D92A23DB107D9F723E1A2ED7D
:10019000B6E001C01D92AE33B207E1F70E94382DE0
:1001A0000C942E3E2DCFCF93DF931F921F92CDB78D
:1001B000DEB782E090E005D29A83898389819A81B3
:1001C000892B19F480E090E002C089819A810F9018
:1001D0000F90DF91CF910895CF93DF931F921F92DD
:1001E000CDB7DEB79A83898389819A8100D31A8239
:1001F000198200000F900F90DF91CF910895CF9357
:10020000DF931F921F92CDB7DEB79A8389838981CE
:100210009A81FC01808191810F900F90DF91CF91A5
:100220000895CF93DF931F921F92CDB7DEB79A83C5
:10023000898381E00E94B32F62E070E080E090E06B
:100240000E94601680E00E94B32F66E970E080E0B3
:1002500090E00E9460160E946C2F7ED089819A8166
:10026000909331138093301300000F900F90DF9123
:10027000CF9108950F931F93CF93DF93CDB7DEB740
:10028000A2970FB6F894DEBF0FBECDBF9AA389A385
:100290008ADF9A83898381E090E0A0E0B0E08B83DD
:1002A0009C83AD83BE83E0913013F09131138B8139
:1002B0009C81AD81BE8169817A818C019D0142E082
:1002C00050E0CF010E948A1098878F838F81988594
:1002D000892BD9F18DE192E00E94233B8F81988593
:1002E0000E94233B89819A818ADF9A878987898145
:1002F0009A8172DF89859A85892F99278D878985CB
:100300008E8782E08C8783E00E943C38CE010B967A
:10031000BC0180E00E9451300E943E32292F2F9371
:100320008F9386E392E0892F8F9386E392E08F93F9
:100330000E94103B0F900F900F900F9068EA78E4A6
:1003400080E090E00E946016A3CF64E574E280E054
:1003500090E00E9460169CCFCF93DF931F921F9274
:10036000CDB7DEB781E00E94C6370E94C12F0E9440
:100370003E32292F2F938F938BE492E0892F8F9316
:100380008BE492E08F930E94103B0F900F900F90A0
:100390000F900E943F310E943E32292F2F938F935E
:1003A0008EE592E0892F8F938EE592E08F930E94E5
:1003B000103B0F900F900F900F9082ED96E00E94EF
:1003C000D32F8A838A810E943E329C0182ED96E07F
:1003D000892F8F9382ED96E08F93832F8F93822FB7
:1003E0008F9387E792E0892F8F9387E792E08F932F
:1003F0000E94103B0F900F900F900F900F900F9056
:1004000082ED96E00E94EF2F0E943E32292F2F931B
:100410008F9382ED96E0892F8F9382ED96E08F93F4
:100420008BE892E0892F8F938BE892E08F930E9464
:10043000103B0F900F900F900F900F900F9042ED88
:1004400056E060EA72E081EC92E00E941D320E9468
:100450003E32292F2F938F9382ED96E0892F8F9331
:1004600082ED96E08F9380EA92E0892F8F9380EA65
:1004700092E08F9381EC92E0892F8F9381EC92E050
:100480008F9382ED92E0892F8F9382ED92E08F938C
:100490000E94103B8DB79EB70A960FB6F894DEBF48
:1004A0000FBECDBF0E9422300E943E32292F2F93D3
:1004B0008F9388E093E0892F8F9388E093E08F9368
:1004C0000E94103B0F900F900F900F9081E00E94C0
:1004D0001C310E943E32292F2F938F9387E193E0A6
:1004E000892F8F9387E193E08F930E94103B0F90A9
:1004F0000F900F900F9084EF91E00E9427310E949F
:100500003E32292F2F938F9381E08F9384EF8F9327
:1005100088E393E0892F8F9388E393E08F930E9481
:10052000103B0F900F900F900F900F900F908AE05C
:10053000898380E00E9428308A838A810E943E322B
:100540009C018981882F90E0432F4F932F93292F6F
:100550002F938F9388E593E0892F8F9388E593E01D
:100560008F930E94103B0F900F900F900F900F9061
:100570000F908A81883081F080E00E942A3866E3FB
:1005800071E080E090E00E9460168981815089834B
:100590008981882371F601C000008A81883021F4A6
:1005A00081E00E940C3808C081E00E941B3880E086
:1005B0000E94E937B0D4FECF0F900F90DF91CF911A
:1005C0000895CF93DF93CDB7DEB72A970FB6F8948F
:1005D000DEBF0FBECDBF9A8789871E821D820E9413
:1005E000D3168091FE109091FF10892B09F46ED1E3
:1005F000209108113091091189859A8582239323CE
:10060000892B09F0E1C089859A85892BA1F024E026
:1006100030E089859A85280F391F89859A85821748
:10062000930748F484E090E029853A85820F931F70
:100630009A87898702C01A86198689859A85892BA7
:1006400009F4C2C0809100119091011129853A8569
:100650008217930708F4B8C08AEF90E19C838B83DC
:100660008091FA109091FB109A8389830BC0898145
:100670009A819C838B8389819A81FC0180819181FD
:100680009A83898389819A81FC01228133818985BA
:100690009A852817390738F489819A81FC0180816D
:1006A0009181892B21F78091FE109091FF10298173
:1006B0003A812817390709F487C08B819C81FC0196
:1006C0002081318184E090E0820F931F9E838D838F
:1006D00089819A81FC01208131818B819C81FC017F
:1006E0003183208389819A81FC012281338189852C
:1006F0009A85281B390B84E090E0880F991F821798
:10070000930700F529813A8189859A85820F931F85
:1007100098878F8389819A81FC0122813381898521
:100720009A85281B390B8F819885FC01338322839E
:1007300089819A8129853A85FC01338322838F81BF
:10074000988544D1209100113091011189819A81BD
:10075000FC0182819381A901481B590BCA01909326
:1007600001118093001120910011309101118091AD
:100770000211909103112817390740F4809100115C
:1007800090910111909303118093021189819A81B4
:10079000FC01228133818091081190910911282B4D
:1007A000392B89819A81FC013383228389819A8143
:1007B000FC01118210828091041190910511019623
:1007C00090930511809304110E94E0168D819E8103
:1007D000892B11F40E94312B8D819E812A960FB6B0
:1007E000F894DEBF0FBECDBFDF91CF910895CF93B8
:1007F000DF9300D000D0CDB7DEB79E838D838D818F
:100800009E819A8389838D819E81892B09F454C0AE
:1008100084E090E091958195910929813A81820F38
:10082000931F9A83898389819A819C838B838B818F
:100830009C81FC01228133818091081190910911E2
:1008400082239323892BC1F18B819C81FC018081C0
:100850009181892B89F58B819C81FC0122813381D7
:100860008091081190910911809590952823392342
:100870008B819C81FC01338322830E94D3168B8160
:100880009C81FC01228133818091001190910111A2
:10089000820F931F90930111809300118B819C8193
:1008A00095D08091061190910711019690930711B0
:1008B000809306110E94E016000026960FB6F89469
:1008C000DEBF0FBECDBFDF91CF910895CF93DF93F1
:1008D000CDB7DEB728970FB6F894DEBF0FBECDBFF9
:1008E00084EC99E09A83898386E397E09C838B83E9
:1008F0008B819C819E838D838D819E819093FB1043
:100900008093FA101092FD101092FC102D813E8100
:1009100089819A81820F931F9C838B8384E090E06E
:100920002B813C81A901481B590BCA019C838B83F5
:100930008B819C819093FF108093FE108091FE101C
:100940009091FF10FC01138212828091FE10909111
:10095000FF10FC01118210828D819E8198878F8308
:100960008F8198852B813C81281B390B8F8198853D
:10097000FC01338322832091FE103091FF108F8180
:100980009885FC01318320838F819885FC018281C9
:10099000938190930311809302118F819885FC01BC
:1009A00082819381909301118093001180E090E8FF
:1009B0009093091180930811000028960FB6F894BF
:1009C000DEBF0FBECDBFDF91CF910895CF93DF93F0
:1009D00000D000D0CDB7DEB79E838D838AEF90E143
:1009E0009A83898307C089819A81FC0180819181E2
:1009F0009A83898389819A81FC01208131818D814B
:100A00009E812817390778F389819A819C838B838B
:100A100089819A81FC01828193812B813C81280FFD
:100A2000391F8D819E8128173907A9F489819A8100
:100A3000FC01228133818D819E81FC018281938121
:100A4000280F391F89819A81FC0133832283898190
:100A50009A819E838D838D819E819C838B838D81E2
:100A60009E81FC01828193812B813C81280F391F5B
:100A700089819A81FC018081918128173907C1F50C
:100A800089819A81FC01208131818091FE109091B1
:100A9000FF102817390711F18D819E81FC012281F9
:100AA000338189819A81FC0180819181FC0182815D
:100AB0009381280F391F8D819E81FC01338322830E
:100AC00089819A81FC0180819181FC0120813181A1
:100AD0008D819E81FC013183208314C02091FE1002
:100AE0003091FF108D819E81FC01318320830AC0EB
:100AF00089819A81FC01208131818D819E81FC0157
:100B00003183208329813A818D819E81281739077D
:100B100039F089819A812D813E81FC0131832083C6
:100B2000000026960FB6F894DEBF0FBECDBFDF9152
:100B3000CF910895CF93DF931F921F92CDB7DEB769
:100B40009A83898389819A819C012D5F3F4F898196
:100B50009A81FC013283218329813A818FEF9FEFB3
:100B6000DC01F90183839483A583B68389819A810B
:100B70009C012D5F3F4F89819A81FC01308727833B
:100B800089819A819C012D5F3F4F89819A81FC0167
:100B90003287218789819A81FC01108200000F90A1
:100BA0000F90DF91CF910895CF93DF931F921F9203
:100BB000CDB7DEB79A83898389819A81FC01138638
:100BC000128600000F900F90DF91CF910895CF9380
:100BD000DF93CDB7DEB72A970FB6F894DEBF0FBE0E
:100BE000CDBF98878F837A87698789859A85FC012D
:100BF00080819181A281B3818B839C83AD83BE83ED
:100C00008B819C81AD81BE818F3F9F4FAF4FBF4F86
:100C100041F48F819885FC01818592859A8389832F
:100C200020C08F81988503969A83898307C0898124
:100C30009A81FC01848195819A83898389819A8133
:100C4000FC0184819581FC012081318142815381A5
:100C50008B819C81AD81BE8182179307A407B50764
:100C600030F789819A81FC012481358189859A85B3
:100C7000FC013583248389859A85FC0184819581D3
:100C800029853A85FC013783268389859A852981C0
:100C90003A81FC013783268389819A8129853A85A7
:100CA000FC013583248389859A852F813885FC0151
:100CB000338722878F819885FC01808121E0280F6E
:100CC0008F819885FC01208300002A960FB6F89446
:100CD000DEBF0FBECDBFDF91CF910895CF93DF93DD
:100CE00000D01F92CDB7DEB79C838B838B819C8114
:100CF000FC01828593859A8389838B819C81FC0189
:100D0000848195812B813C81F90126813781FC0109
:100D1000378326838B819C81FC01868197812B817F
:100D20003C81F90124813581FC013583248389814B
:100D30009A81FC01218132818B819C81281739079E
:100D400051F48B819C81FC012681378189819A81B4
:100D5000FC01328321838B819C81FC0113861286E6
:100D600089819A81FC0180812FEF280F89819A81E6
:100D7000FC01208389819A81FC0180810F900F9072
:100D80000F900F90DF91CF910895CF93DF93CDB760
:100D9000DEB728970FB6F894DEBF0FBECDBF9C8399
:100DA0008B837E836D8358874F838D819E819A8349
:100DB000898329818B819C81FC0120838B819C818B
:100DC00001979C838B8389819A81892F99279A83A4
:100DD000898329818B819C81FC0120838B819C816B
:100DE00001979C838B838B819C81FC0110828B817A
:100DF0009C8101979C838B838B819C81FC01108259
:100E00008B819C8101979C838B838B819C8120E8C3
:100E1000FC0120838B819C8101979C838B838B8138
:100E20009C81FC0110828B819C8101979C838B8328
:100E30008B819C81FC0110828B819C8101979C831A
:100E40008B838B819C81FC0110828B819C814797D5
:100E50009C838B838F8198859A83898329818B8159
:100E60009C81FC0120838B819C8101979C838B83D7
:100E700089819A81892F99279A83898329818B81F6
:100E80009C81FC0120838B819C8107979C838B83B1
:100E90008B819C8128960FB6F894DEBF0FBECDBF24
:100EA000DF91CF910895CF93DF93CDB7DEB7FFD019
:100EB000A0910A11B0910B11CD91CDBFDD91DEBF94
:100EC000FF91EF91DF91CF91BF91AF919F918F9162
:100ED0007F916F915F914F913F912F911F910F9152
:100EE000FF90EF90DF90CF90BF90AF909F908F904A
:100EF0007F906F905F904F903F902F901F900F903A
:100F00000CBE0F900BBE0F900FBE0F90089581E0A6
:100F1000DF91CF9108950F920FB6F8940F920BB610
:100F20000F920CB60F921F9211242F923F924F9264
:100F30005F926F927F928F929F92AF92BF92CF9269
:100F4000DF92EF92FF920F931F932F933F934F9354
:100F50005F936F937F938F939F93AF93BF93CF9341
:100F6000DF93EF93FF93A0910A11B0910B110DB68F
:100F70000D920EB60D920E948B1AA0910A11B0919B
:100F80000B11CD91CDBFDD91DEBFFF91EF91DF91D0
:100F9000CF91BF91AF919F918F917F916F915F9111
:100FA0004F913F912F911F910F91FF90EF90DF9004
:100FB000CF90BF90AF909F908F907F906F905F90F9
:100FC0004F903F902F901F900F900CBE0F900BBE34
:100FD0000F900FBE0F90089500000F920FB6F89477
:100FE0000F920BB60F920CB60F921F9211242F92F4
:100FF0003F924F925F926F927F928F929F92AF92A9
:10100000BF92CF92DF92EF92FF920F931F932F9395
:101010003F934F935F936F937F938F939F93AF9380
:10102000BF93CF93DF93EF93FF93A0910A11B091F9
:101030000B110DB60D920EB60D9283E590E0FC01FA
:1010400010820E949218882311F00E948B1AA0919E
:101050000A11B0910B11CD91CDBFDD91DEBFFF9193
:10106000EF91DF91CF91BF91AF919F918F917F9140
:101070006F915F914F913F912F911F910F91FF9031
:10108000EF90DF90CF90BF90AF909F908F907F9028
:101090006F905F904F903F902F901F900F900CBEDD
:1010A0000F900BBE0F900FBE0F9008950000CF93CE
:1010B000DF93CDB7DEB7A89580E090E088709927E0
:1010C000892B11F080EE01C080EC90E09770892BA5
:1010D000982F88E10FB6F894A895809360000FBE12
:1010E000909360000000DF91CF91089576DF18950E
:1010F0000000CF93DF9300D01F921F92CDB7DEB7D1
:101100009C838B836D838B819C819A8389830FB6AB
:10111000F8940F9289819A81FC01808191812981C3
:101120003A81F901278D422F50E029813A81F90156
:1011300020A1222F30E0429FB001439F700D529FAB
:10114000700D11249B01280F391F89819A81FC01A0
:101150003583248389819A81FC01168E89819A8145
:10116000FC012081318189819A81FC0133832283B2
:1011700089819A81FC012081318189819A81FC01D8
:10118000878D882F90E0BC016150710989819A8117
:10119000FC0180A1482F50E0649FC001659F900D25
:1011A000749F900D1124280F391F89819A81FC01A9
:1011B0003783268389819A812FEFFC0121A38981BE
:1011C0009A812FEFFC0122A38D81882379F48981F4
:1011D0009A81FC018085882389F089819A8108960B
:1011E0000E94B91B882351F096DE08C089819A813C
:1011F0000896A0DC89819A8143969CDC0F900FBEF3
:1012000081E00F900F900F900F900F90DF91CF9192
:1012100008950F931F93CF93DF93CDB7DEB7299730
:101220000FB6F894DEBF0FBECDBF8F8368874987A6
:101230008F81482F50E08885282F30E0429FC001E1
:10124000439F900D529F900D11249A838983898129
:101250009A818396B6D99C838B838B819C81892BC1
:1012600099F08B819C819E838D838D819E81839655
:101270009E838D832B813C818D819E81890129856F
:10128000AC0168858F810DD08B819C8129960FB62A
:10129000F894DEBF0FBECDBFDF91CF911F910F91AC
:1012A00008950F931F93CF93DF93CDB7DEB72797A2
:1012B0000FB6F894DEBF0FBECDBF89836A835C830F
:1012C0004B832D831F830E838A81882341F48E8173
:1012D0009F812E813F81FC013183208307C08E8155
:1012E0009F812B813C81FC01318320838E819F81F2
:1012F0002981FC01278F8E819F812A81FC0120A3F7
:101300008E819F8161E0F5DE000027960FB6F8948C
:10131000DEBF0FBECDBFDF91CF911F910F9108951A
:101320000F93CF93DF931F921F92CDB7DEB79A83AF
:10133000898389819A81892BB9F089819A81FC01FD
:101340001582148289819A81FC011182108289811F
:101350009A81FC01168289819A8100E020E030E0C8
:10136000A90160E070E025D000000F900F90DF91A0
:10137000CF910F910895CF93DF9300D01F921F92CA
:10138000CDB7DEB78D8381E089831A824D816A8172
:1013900089813FDF9C838B838B819C81C1DF8B8123
:1013A0009C810F900F900F900F900F90DF91CF9135
:1013B00008950F93CF93DF93CDB7DEB762970FB643
:1013C000F894DEBF0FBECDBF9B878A877D876C8771
:1013D0002E873F87488B598B0A8B19828A859B857C
:1013E0009B838A830FB6F8940F928A819B81FC01BC
:1013F000268D8A819B81FC01878D281718F08A89A8
:101400008230F9F42C853D858A819B814A89B90116
:101410009DD18C838A819B81FC018389882349F03B
:101420008A819B8143960E94B91B882331F073DD2A
:1014300004C08C81882309F06EDD0F900FBE81E01F
:1014400064C08E859F85A889B989892B8A2B8B2BAF
:1014500021F40F900FBE80E058C08981882331F4B9
:10146000CE0105960E94561D81E089830F900FBE24
:101470000E94D3160FB6F8940F928A819B81FC01CB
:1014800081A18F3F21F48A819B81FC0111A28A8175
:101490009B81FC0182A18F3F21F48A819B81FC0109
:1014A00012A20F900FBE9E01225F3F4FCE01059604
:1014B000B9010E94791D882311F58A819B81E2D2AE
:1014C0008823B9F08E859F85A889B9892A813B81B7
:1014D000285F3F4FAC01BD01C9010E94171B8A81E3
:1014E0009B8155D20E94E016882309F07BCF13DD43
:1014F00079CF8A819B814BD20E94E01673CF8A817B
:101500009B8145D20E94E01680E062960FB6F89467
:10151000DEBF0FBECDBFDF91CF910F910895CF9366
:10152000DF93CDB7DEB72D970FB6F894DEBF0FBEB1
:10153000CDBF98878F837A8769875C874B872D8794
:101540008F8198859B838A831C828A819B81FC0181
:10155000268D8A819B81FC01878D281718F08D8547
:101560008230A9F58A819B81FC0182A18D838A81C9
:101570009B81FC01868D8E8329853A858A819B819A
:101580004D85B901E3D08D818F3FB9F48A819B816C
:10159000FC0183898823C1F08A819B8143960E9444
:1015A000B91B882389F08B859C85892B69F08B85F5
:1015B0009C8521E0FC01208307C08D818F5F282F4F
:1015C0008A819B81FC0122A381E0898301C0198269
:1015D00089812D960FB6F894DEBF0FBECDBFDF9187
:1015E000CF910895CF93DF93CDB7DEB761970FB654
:1015F000F894DEBF0FBECDBF9B878A877D876C873F
:101600002E873F87488B598B19828A859B859B83C0
:101610008A830FB6F8940F928A819B81FC01868D94
:101620008C838C818823F9F02C853D858A819B8170
:10163000B9015CD18C812FEF280F8A819B81FC013D
:10164000268F8A819B81FC018085882341F08A81D5
:101650009B8108960E94B91B882309F05CDC0F90DF
:101660000FBE81E06AC08E859F85A889B989892BC4
:101670008A2B8B2B21F40F900FBE80E05EC08981F6
:10168000882331F4CE0105960E94561D81E089839E
:101690000F900FBE0E94D3160FB6F8940F928A8156
:1016A0009B81FC0181A18F3F21F48A819B81FC01F8
:1016B00011A28A819B81FC0182A18F3F21F48A8142
:1016C0009B81FC0112A20F900FBE9E01225F3F4F33
:1016D000CE010596B9010E94791D882311F58A81F2
:1016E0009B81B3D18823B9F08E859F85A889B9895C
:1016F0002A813B812D5E3F4FAC01BD01C9010E9493
:10170000171B8A819B8143D10E94E016882309F030
:1017100080CF01DC7ECF8A819B8139D10E94E01687
:1017200078CF8A819B8133D10E94E0168A819B8188
:101730008CD1882309F46DCF80E061960FB6F894C0
:10174000DEBF0FBECDBFDF91CF910895CF93DF9362
:10175000CDB7DEB727970FB6F894DEBF0FBECDBF6B
:101760009C838B837E836D834F8319828B819C81C5
:10177000FC01868D8A838B819C81FC0180A188235A
:10178000B1F48B819C81FC0180819181892B09F0CE
:101790009CC08B819C81FC01848195810E94191FD2
:1017A00089838B819C81FC01158214828EC08F817C
:1017B0008823D9F58B819C81FC0180A1482F50E0C2
:1017C0008B819C81FC01828193812D813E81B901B5
:1017D0000E94B13A8B819C81FC01228133818B81F3
:1017E0009C81FC0180A1882F90E0280F391F8B81FC
:1017F0009C81FC01338322838B819C81FC012281AB
:1018000033818B819C81FC01848195812817390764
:1018100008F45BC08B819C81FC01208131818B812C
:101820009C81FC013383228350C08B819C81FC010D
:1018300080A1482F50E08B819C81FC01868197819B
:101840002D813E81B9010E94B13A8B819C81FC01BE
:10185000268137818B819C81FC0180A1882F90E0BB
:10186000919581959109280F391F8B819C81FC01ED
:10187000378326838B819C81FC01268137818B8174
:101880009C81FC018081918128173907A8F48B8104
:101890009C81FC01248135818B819C81FC0180A18C
:1018A000882F90E0919581959109280F391F8B81A0
:1018B0009C81FC01378326838F81823031F48A81B9
:1018C000882319F08A8181508A838A8121E0280F38
:1018D0008B819C81FC01268F898127960FB6F89415
:1018E000DEBF0FBECDBFDF91CF910895CF93DF93C1
:1018F00000D01F92CDB7DEB79A8389837C836B8338
:1019000089819A81FC0180A18823C9F189819A810A
:10191000FC012681378189819A81FC0180A1882F71
:1019200090E0280F391F89819A81FC013783268333
:1019300089819A81FC012681378189819A81FC0104
:10194000848195812817390750F089819A81FC019B
:101950002081318189819A81FC01378326838981A5
:101960009A81FC0180A1482F50E089819A81FC0175
:10197000268137818B819C81B9010E94B13A000098
:101980000F900F900F900F90DF91CF910895CF930C
:10199000DF9300D01F92CDB7DEB79C838B830FB649
:1019A000F8940F928B819C81FC0182A1898312C0E3
:1019B0008B819C81FC018389882381F08B819C81B0
:1019C00043960E94B91B882311F00E94291E898129
:1019D00081508983898118165CF301C000008B81D6
:1019E0009C812FEFFC0122A30F900FBE0FB6F8943D
:1019F0000F928B819C81FC0181A18A8312C08B8113
:101A00009C81FC018085882381F08B819C810896D4
:101A10000E94B91B882311F00E94291E8A818150DF
:101A20008A838A8118165CF301C000008B819C8137
:101A30002FEFFC0121A30F900FBE00000F900F901D
:101A40000F900F90DF91CF910895CF93DF9300D047
:101A5000CDB7DEB79B838A830FB6F8940F928A8145
:101A60009B81FC01868D882319F481E0898301C064
:101A700019820F900FBE89810F900F900F90DF9108
:101A8000CF910895CF93DF9300D0CDB7DEB79B837E
:101A90008A830FB6F8940F928A819B81FC01268D70
:101AA0008A819B81FC01878D281719F481E0898345
:101AB00001C019820F900FBE89810F900F900F9077
:101AC000DF91CF910895CF93DF93CDB7DEB72997FC
:101AD0000FB6F894DEBF0FBECDBF9C838B834D83C2
:101AE0005E836F83788729878B819C819A83898322
:101AF0000FB6F8940F9289819A81FC0181A18F3FE2
:101B000021F489819A81FC0111A289819A81FC01C9
:101B100082A18F3F21F489819A81FC0112A20F904A
:101B20000FBE89819A81FC01868D882371F4898199
:101B30009A81FC0173968D819E81AF81B88529853C
:101B4000AC01BD01CF010E94421B89819A811FDF38
:101B5000000029960FB6F894DEBF0FBECDBFDF910F
:101B6000CF9108950F93CF93DF93CDB7DEB728972A
:101B70000FB6F894DEBF0FBECDBF9D838C837F83ED
:101B80006E8348878885813019F481E08B8301C09A
:101B90001B828E819F81892B21F481E090E09F83BD
:101BA0008E838C819D819C01205F3F4F8C819D8124
:101BB0008217930768F48C819D8101969D838C83A5
:101BC0008C819D810F960E94E1029A83898302C0D5
:101BD0001A82198289819A81892B69F089819A8177
:101BE000BC01615F7F4F2E813F814C815D81898186
:101BF0009A810B8138D589819A8128960FB6F894FD
:101C0000DEBF0FBECDBFDF91CF910F9108950F932F
:101C1000CF93DF9300D01F921F92CDB7DEB79D8385
:101C20008C838C819D819B838A8319820FB6F89463
:101C30000F928A819B81DC0118968D919C91199756
:101C4000892B39F58A819B81FC0182859385892BBB
:101C500001F58A819B81DC011E96EC918A819B8132
:101C6000DC0116962D913C9117978A819B81DC01AE
:101C700014964D915C9115978A819B81DC011C968D
:101C80006D917C911D978A819B810E2FECD481E010
:101C900089830F900FBE89810F900F900F900F9046
:101CA0000F90DF91CF910F910895CF93DF9300D0E4
:101CB00000D0CDB7DEB79E838D838D819E819C83BE
:101CC0008B838B819C81FC01248135818B819C815C
:101CD000FC0180819181820F931F9A8389838B817C
:101CE0009C81FC018281938129813A81A901481B51
:101CF000590BCA019A83898389819A8101979A83B2
:101D000089838B819C81FC012481358189819A8121
:101D10008217930768F08B819C81FC0184819581F7
:101D200029813A81A901481B590BCA019A838983E9
:101D300089819A8126960FB6F894DEBF0FBECDBF7B
:101D4000DF91CF910895AF92BF92CF92DF92EF9241
:101D5000FF920F931F93CF93DF93CDB7DEB76997B1
:101D60000FB6F894DEBF0FBECDBF998B888B7B8BEF
:101D70006A8B5D8B4C8B0E8B1F8B288F398F8889DC
:101D800099899E838D831A8219828C899D899C836F
:101D90008B838D819E81FC01848195810197988739
:101DA0008F838D819E81FC018685882F90E08170D4
:101DB0009927892B89F08B819C8102969C838B8348
:101DC0002B813C818F8198858217930780F41E8A2E
:101DD0001F8A188E198E0BC02B813C818F819885AC
:101DE0008217930720F48F8198859C838B838E893B
:101DF0009F89A88DB98D892B8A2B8B2B09F447C01D
:101E0000CE010B960E942E1D0FB6F8940F928D8175
:101E10009E814BDF9A83898329813A818B819C81C2
:101E20002817390770F460E080E090E00E94F42405
:101E30000E94ED1E9C018D819E81FC0133872287CB
:101E400003C00F900FBE23C00F900FBE8E899F89D5
:101E5000A88DB98D5C016D01E12CF12C00E010E042
:101E6000980140E050E0BA0180E00E9400208D819E
:101E70009E81FC01138612869E012A5E3F4FCE0191
:101E80000B96B9010E94791D882309F4BDCF898181
:101E90009A81892B29F48D819E8107DF9A8389831A
:101EA000EB81FC8129813A814C895D896A897B8932
:101EB0008D819E818F01C2D09A87898789859A8575
:101EC000892B41F18D819E818BD39C018D819E81D7
:101ED000FC018681978128173907E0F064D78D814E
:101EE0009E81FC0180859185892B99F08D819E8151
:101EF000FC0180859185E12CF12C00E020E030E0B0
:101F0000A90160E00E9407218D819E81FC0111865C
:101F1000108656D789859A8569960FB6F894DEBFE4
:101F20000FBECDBFDF91CF911F910F91FF90EF902A
:101F3000DF90CF90BF90AF900895CF92DF92EF9255
:101F4000FF920F931F93CF93DF93CDB7DEB76197C7
:101F50000FB6F894DEBF0FBECDBF9B878A877D8703
:101F60006C875F874E87398B288B8A859B859C83FE
:101F70008B838E859F859A8389838B819C81FC01CD
:101F80008685882F90E081709927892B29F0898197
:101F90009A8102969A8389838B819C8186DE9E83B7
:101FA0008D83E981FA812D813E814E855F856C8527
:101FB0007D858B819C818F0141D098878F838F8114
:101FC0009885892B51F18B819C810AD39C018B814F
:101FD0009C81FC018681978128173907F0F01986CA
:101FE0008B819C81FC0180859185892BB1F08B814F
:101FF0009C81FC0180859185288939896901E12CC2
:10200000F12C00E020E030E0A90160E00E94D8223D
:102010008B819C81FC01118610868F819885619649
:102020000FB6F894DEBF0FBECDBFDF91CF911F91E9
:102030000F91FF90EF90DF90CF9008950F931F9333
:10204000CF93DF93CDB7DEB761970FB6F894DEBFBD
:102050000FBECDBF998788877B876A875D874C874E
:102060003F872E87198B088B8E859F85892B11F4CE
:10207000198233C088859985FC018685882F90E078
:1020800081709927892BA9F481E089838C859D85AE
:102090009D838C838E859F859F838E832C813D813C
:1020A0008E819F812817390708F4C9019D878C8785
:1020B00014C02E853F85888999892817390760F0D3
:1020C00081E089839E01245F3F4F8885998542E0A6
:1020D00050E0B9014FD101C019828981882359F09C
:1020E0004C855D852A853B8588859985B90142D1D6
:1020F0009B838A8302C01B821A828A819B8161969C
:102100000FB6F894DEBF0FBECDBFDF91CF911F9108
:102110000F910895AF92BF92CF92DF92EF92FF920C
:102120000F931F93CF93DF93CDB7DEB762970FB6B0
:10213000F894DEBF0FBECDBF9A8789877C876B87F7
:102140005E874D870F87188B298B3A8B89859A85F7
:1021500098878F831A8219828F819885FC018685E2
:10216000882F90E081709927892B29F082E090E0F8
:102170009E838D8302C01E821D828F859889A989C6
:10218000BA89892B8A2B8B2B09F441C00FB6F8949E
:102190000F928F81988524D29C838B832B813C81E5
:1021A0008D819E818217930768F060E080E090E067
:1021B0000E94F4240E94ED1E9C018F819885FC01F1
:1021C000318720870F900FBE2B813C818D819E81AE
:1021D0008217930708F18F859889A989BA895C01CC
:1021E0006D01E12CF12C00E010E0980140E050E09E
:1021F000BA0180E00E9400208F819885FC01118641
:1022000010868F819885ECD19C838B8305C08F814C
:102210009885E6D19C838B832B813C818D819E8127
:102220008217930770F5ED81FE812B813C814D85EE
:102230005E856B857C858F8198858F0135D09A83EB
:10224000898389819A81892BE1F0ADD58F81988529
:10225000FC0182859385892B99F08F819885FC01FB
:1022600082859385E12CF12C00E020E030E0A9018B
:1022700060E00E9407218F819885FC0113861286F9
:102280009FD589819A8162960FB6F894DEBF0FBE02
:10229000CDBFDF91CF911F910F91FF90EF90DF9015
:1022A000CF90BF90AF9008950F931F93CF93DF937C
:1022B000CDB7DEB762970FB6F894DEBF0FBECDBFC5
:1022C0009A8789877C876B875E874D87388B2F87B6
:1022D0001A8B098B89899A89892B81F189859A853D
:1022E000FC01808191819C838B832F85388949896A
:1022F0005A89BE01695F7F4F89859A85CAD08F81CF
:1023000098859A8389832F85388989899A89A90133
:10231000481B590BCA01988B8F8729813A818D857B
:102320009E858217930770F489859A852B813C815D
:10233000FC01318320831A82198204C08D859E8519
:102340009A8389832F85388949815A816B857C8559
:1023500089859A859ED09E838D838D819E8162968C
:102360000FB6F894DEBF0FBECDBFDF91CF911F91A6
:102370000F910895CF93DF93CDB7DEB72E970FB6A9
:10238000F894DEBF0FBECDBF9A8789877C876B87A5
:102390005E874D8789859A85FC01828193819A8326
:1023A000898389859A85FC012481358189819A8177
:1023B000A901481B590BCA019C838B838D859E857F
:1023C0009E838D832B813C818D819E8128173907C7
:1023D00008F4C90198878F8389859A85FC01248533
:1023E000358589819A81820F931F4F8158852B856E
:1023F0003C85B9010E94B13A2D853E858F81988533
:1024000082179307A8F42D853E858F819885A901B1
:10241000481B590B2B853C858F819885280F391FC8
:1024200089859A85FC0184859585B9010E94B13A18
:1024300029813A818D859E85820F931F9A83898396
:1024400089859A85FC012481358189819A81821749
:10245000930768F089859A85FC018481958129819B
:102460003A81A901481B590BCA019A83898389853E
:102470009A8529813A81FC01338322838D859E854B
:102480002E960FB6F894DEBF0FBECDBFDF91CF9171
:102490000895CF93DF93CDB7DEB766970FB6F89464
:1024A000DEBF0FBECDBF988B8F877A8B698B5C8B1D
:1024B0004B8B3E8B2D8B8D899E899C838B838B8947
:1024C0009C899E838D832B813C818D819E812817E1
:1024D000390708F4C90198878F838F819885892BE4
:1024E00009F473C08F859889FC01808191819A835A
:1024F00089838F859889FC012481358189819A811E
:10250000A901481B590BCA019A8789878F81988531
:102510009C878B8729853A858B859C852817390769
:1025200008F4C9019E878D878F859889FC012485D1
:10253000358589819A81280F391F4D855E85898966
:102540009A89B9010E94B13A2F8138858D859E857F
:1025500082179307A0F42F8138858D859E85A90168
:10256000481B590B8F859889FC01648575852989DD
:102570003A898D859E85820F931F0E94B13A2981E9
:102580003A818F819885820F931F9A8389838F85E3
:102590009889FC012481358189819A81821793076A
:1025A00068F08F859889FC018481958129813A8121
:1025B000A901481B590BCA019A8389838F85988981
:1025C00029813A81FC01318320838F819885669629
:1025D0000FB6F894DEBF0FBECDBFDF91CF91089547
:1025E000CF93DF9300D01F92CDB7DEB79C838B8350
:1025F0008B819C81FC01248135818B819C81FC0134
:1026000082819381820F931F9A8389838B819C811E
:10261000FC018081918129813A81A901481B590BD4
:10262000CA019A8389838B819C81FC012481358135
:1026300089819A818217930768F08B819C81FC01C4
:102640008481958129813A81A901481B590BCA01CE
:102650009A83898389819A810F900F900F900F90B0
:10266000DF91CF9108950F93CF93DF93CDB7DEB76E
:1026700029970FB6F894DEBF0FBECDBF9A8389832A
:102680007C836B835E834D8338872F8309878981A1
:102690009A814FE050E060E070E00E94BA3A898190
:1026A0009A812B813C81FC013587248789819A811D
:1026B0002D813E81FC013583248389819A812F817C
:1026C0003885FC013783268389819A812985FC011D
:1026D0002687000029960FB6F894DEBF0FBECDBF47
:1026E000DF91CF910F910895AF92BF92CF92DF9279
:1026F000EF92FF920F93CF93DF93CDB7DEB7609742
:102700000FB6F894DEBF0FBECDBF9F838E8379874F
:1027100068875B874A873D872C870E87F88AEF8614
:102720008A859B850E94E1029D838C838C819D819B
:10273000892BB9F084E390E00E94E1029A838983B7
:1027400089819A81892B41F089819A812C813D81EF
:10275000FC01348F238F07C08C819D810E94F70379
:1027600002C01A82198289819A81892BC1F0A981BC
:10277000BA81EF85F8892C853D854A855B8568851A
:1027800079858E819F81A12CB12C6D017F010E85F1
:1027900019D089819A8105D181E08B8302C08FEFA6
:1027A0008B838B8160960FB6F894DEBF0FBECDBFD2
:1027B000DF91CF910F91FF90EF90DF90CF90BF907E
:1027C000AF900895AF92BF92CF92DF92EF92FF92B7
:1027D0000F931F93CF93DF93CDB7DEB762970FB6FA
:1027E000F894DEBF0FBECDBF9D838C837F836E8345
:1027F000598748873B872A870C87FE86ED86D88ACB
:10280000CF86BA8AA98A8F859889FC01838D948D99
:1028100028853985A90165EA70E00E94BA3A8F855A
:102820009889FC01238D348D888599850197820FC5
:10283000931F9B838A838E819F81892B69F11982E3
:1028400021C08981882F90E02981222F30E04E819C
:102850005F81240F351FF90140812F853889820F50
:10286000931F4D96FC0140838981882F90E02E8133
:102870003F81820F931FFC018081882339F0898179
:102880008F5F898389818031E0F201C000008F85EC
:102890009889FC0114A604C08F859889FC01158EC7
:1028A0008C858A3010F089E08C878F8598892C85FB
:1028B000FC01228F8F8598892C85FC0125A78F85A7
:1028C0009889FC0116A68F85988902960E94D405E6
:1028D0008F8598890E960E94D4058F8598892F85BB
:1028E0003889FC01338722878C85882F90E0A0E00F
:1028F000B0E02AE030E040E050E079018A01E81AD7
:10290000F90A0A0B1B0BD801C7012F853889F90179
:1029100086879787A08BB18B8F8598892F8538897B
:10292000FC01378B268B8F8598898F9644E050E089
:1029300060E070E00E94BA3A8F859889C39641E0C2
:1029400050E060E070E00E94BA3A4A855B852C81D5
:102950003D818A819B81B9010E94C5069C018F85BA
:102960009889FC01318320838D859E85892B39F0E0
:102970008D859E852F853889FC0131832083000059
:1029800062960FB6F894DEBF0FBECDBFDF91CF9138
:102990001F910F91FF90EF90DF90CF90BF90AF907D
:1029A0000895CF93DF9300D01F92CDB7DEB79C83FD
:1029B0008B830FB6F8940F928091B6118F5F80933E
:1029C000B61180910A1190910B11892B69F48B81BA
:1029D0009C8190930B1180930A118091B6118130E4
:1029E000C9F40E94341E16C08091BC11882391F452
:1029F00080910A1190910B11FC01228D8B819C8199
:102A0000FC01828D821730F08B819C8190930B1199
:102A100080930A118091C3118F5F8093C3118B81C2
:102A20009C81FC01928D8091BB11891730F48B81C0
:102A30009C81FC01828D8093BB118B819C81FC0168
:102A4000828D282F30E04BE0429FC001439F900DC4
:102A50001124835F9E4EFC01808191819A8389833A
:102A60008B819C8129813A81FC013783268389816E
:102A70009A81FC01268137818B819C81FC01318701
:102A8000208789819A81FC01868197812B813C81F5
:102A90002E5F3F4FFC01358324838B819C819C01F9
:102AA0002E5F3F4F89819A81FC01378326838B817A
:102AB0009C81FC01828D282F30E04BE0429FC001B9
:102AC000439F900D11249C01245F3E4E8B819C817D
:102AD000FC01358724878B819C81FC01828D882FA6
:102AE00090E04BE0489F9001499F300D1124245FF6
:102AF0003E4EF901208141E0420F5BE0589F90017A
:102B0000599F300D1124C901845F9E4EFC01408302
:102B10000F900FBE8091BC11882371F080910A1133
:102B200090910B11FC01228D8B819C81FC01828D87
:102B3000281710F40E948B0700000F900F900F9041
:102B40000F90DF91CF910895EF92FF920F931F9313
:102B5000CF93DF93CDB7DEB760970FB6F894DEBFA3
:102B60000FBECDBF9C878B874D875E876F87788B25
:102B7000198219D18091B7119091B811A091B91112
:102B8000B091BA118A839B83AC83BD838B859C856E
:102B9000FC0120813181428153818D859E85AF85E5
:102BA000B889820F931FA41FB51F8E839F83A887A8
:102BB000B9878B859C85FC012081318142815381BD
:102BC0008A819B81AC81BD8182179307A407B507D9
:102BD00000F58B859C85FC012081318142815381E8
:102BE0008E819F81A885B98582179307A407B507B1
:102BF00078F52E813F81488559858A819B81AC81FA
:102C0000BD8182179307A407B50710F581E089837A
:102C10001FC08B859C85FC012081318142815381BD
:102C20008E819F81A885B98582179307A407B50770
:102C300068F02E813F81488559858A819B81AC81CE
:102C4000BD8182179307A407B50710F481E089833B
:102C50002B853C858E819F81A885B985F90180836C
:102C60009183A283B38389818823A9F02E813F8138
:102C7000488559858A819B81AC81BD8179018A0112
:102C8000E81AF90A0A0B1B0BD801C70140E0BC0186
:102C9000CD010E94332594D08A878A85882311F438
:102CA0000E948B07898160960FB6F894DEBF0FBE35
:102CB000CDBFDF91CF911F910F91FF90EF900895BD
:102CC000CF93DF9300D01F921F92CDB7DEB76A83F8
:102CD0007B838C839D8319828A819B81AC81BD819A
:102CE000892B8A2B8B2B61F05ED08A819B81AC81F2
:102CF000BD8140E0BC01CD010E94332561D08983B4
:102D00008981882311F40E948B0700000F900F9097
:102D10000F900F900F90DF91CF910895EF92FF9257
:102D20000F93CF93DF931F92CDB7DEB70F2EF8EC42
:102D3000EF2EF1E1FF2EF02D00E020E030E040EC3E
:102D400050E068E773E08CE790E0CEDC898389810E
:102D5000813019F40E941626898389818130C9F453
:102D6000F8948FEF9FEFDC018093C4119093C5110D
:102D7000A093C611B093C71181E08093BC1110924B
:102D8000B7111092B8111092B9111092BA110E9495
:102D900053078091060200000F90DF91CF910F91B1
:102DA000FF90EF900895CF93DF93CDB7DEB780917A
:102DB000CA118F5F8093CA110000DF91CF910895EF
:102DC000CF93DF93CDB7DEB72D970FB6F894DEBF64
:102DD0000FBECDBF1A8219821B820FB6F8940F92D4
:102DE0008091CA1181508093CA118091CA118823A1
:102DF00009F068C18091B611882309F463C11BC131
:102E000080919B1190919C11FC01808591859A8302
:102E1000898389819A81FC01808D918D998788872A
:102E200089819A81FC018289938929813A81F901FA
:102E300024893589FC013783268389819A81FC01A5
:102E40008489958929813A81F90122893389FC0194
:102E50003583248388859985FC012181328189818C
:102E60009A810E962817390751F489819A81FC01BD
:102E70002489358988859985FC013283218389815C
:102E80009A81FC01118E108E88859985FC018081C4
:102E90002FEF280F88859985FC01208389819A81ED
:102EA000FC01848595859B878A8789819A81FC01AD
:102EB0008681978129813A81F90120853185FC013C
:102EC0003783268389819A81FC01808591852981B8
:102ED0003A81F90126813781FC01358324838A8573
:102EE0009B85FC012181328189819A810296281774
:102EF000390751F489819A81FC01208531858A85C1
:102F00009B85FC013283218389819A81FC0115868E
:102F100014868A859B85FC0180812FEF280F8A8586
:102F20009B85FC01208389819A81FC01928D80918F
:102F3000BB11891730F489819A81FC01828D8093BD
:102F4000BB1189819A81FC01828D282F30E04BE0F2
:102F5000429FC001439F900D1124835F9E4EFC0150
:102F6000808191819D878C8789819A812C853D857F
:102F7000FC01378326838C859D85FC012681378162
:102F800089819A81FC01318720878C859D85FC0190
:102F90008681978129813A812E5F3F4FFC013583DD
:102FA000248389819A819C012E5F3F4F8C859D856A
:102FB000FC013783268389819A81FC01828D282F29
:102FC00030E04BE0429FC001439F900D11249C01D3
:102FD000245F3E4E89819A81FC013587248789814F
:102FE0009A81FC01828D882F90E04BE0489F9001F0
:102FF000499F300D1124245F3E4EF901208141E0AC
:10300000420F5BE0589F9001599F300D1124C90178
:10301000845F9E4EFC01408389819A81FC01228D50
:1030200080910A1190910B11FC01828D281718F0E4
:1030300081E08093C11180919411882309F0E0CE42
:1030400089819A81892B09F098D68091BD11909140
:10305000BE11A091BF11B091C0118C839D83AE832E
:10306000BF838C819D81AE81BF81892B8A2B8B2B65
:1030700009F158D0882319F081E08093C1118C8127
:103080009D81AE81BF810197A109B1098C839D8388
:10309000AE83BF838C819D81AE81BF81892B8A2BBA
:1030A0008B2B39F71092BD111092BE111092BF11E7
:1030B0001092C0118091C111882321F081E08B838F
:1030C0000E948B070F900FBE8B812D960FB6F89440
:1030D000DEBF0FBECDBFDF91CF910895CF93DF93B9
:1030E00000D01F92CDB7DEB70FB6F8940F92809143
:1030F000B7119091B811A091B911B091BA1189830B
:103100009A83AB83BC830F900FBE89819A81AB8178
:10311000BC81BC01CD010F900F900F900F90DF91FB
:10312000CF910895CF93DF93CDB7DEB763970FB6F6
:10313000F894DEBF0FBECDBF19828091CA118823DB
:1031400009F0CCC18091B7119091B811A091B9113B
:10315000B091BA110196A11DB11D8A839B83AC83E6
:10316000BD838A819B81AC81BD818093B71190938F
:10317000B811A093B911B093BA118A819B81AC8127
:10318000BD81892B8A2B8B2BD1F48091901190914A
:1031900091119F838E8380919211909193119093BE
:1031A0009111809390118E819F81909393118093C0
:1031B00092118091C2118F5F8093C211DED58091F0
:1031C000C4119091C511A091C611B091C7112A8167
:1031D0003B814C815D81281739074A075B0708F45A
:1031E00060C18091901190919111FC0180818823A0
:1031F00061F48FEF9FEFDC018093C4119093C511B0
:10320000A093C611B093C7114CC1809190119091B9
:103210009111FC0187819085FC01808591859987BA
:10322000888788859985FC0182819381A481B581F5
:103230008A879B87AC87BD872A813B814C815D81D2
:103240008A859B85AC85BD85281739074A075B07AA
:1032500068F48A859B85AC85BD858093C411909365
:10326000C511A093C611B093C7111BC1888599855C
:10327000FC01848595859F878E8788859985FC01CB
:103280008681978128853985F90120853185FC0162
:103290003783268388859985FC01808591852885DB
:1032A0003985F90126813781FC01358324838E8598
:1032B0009F85FC0121813281888599850296281796
:1032C000390751F488859985FC01208531858E85E3
:1032D0009F85FC013283218388859985FC011586B1
:1032E00014868E859F85FC0180812FEF280F8E85A7
:1032F0009F85FC01208388859985FC01808D918DB7
:10330000892B09F445C088859985FC01808D918DB4
:10331000998B888B88859985FC018289938928857A
:103320003985F90124893589FC013783268388850D
:103330009985FC018489958928853985F901228937
:103340003389FC013583248388899989FC01218193
:103350003281888599850E962817390751F488851A
:103360009985FC012489358988899989FC013283F2
:10337000218388859985FC01118E108E8889998911
:10338000FC0180812FEF280F88899989FC01208317
:1033900088859985FC01928D8091BB11891730F445
:1033A00088859985FC01828D8093BB1188859985DC
:1033B000FC01828D282F30E04BE0429FC001439FEB
:1033C000900D1124835F9E4EFC01808191819B8B27
:1033D0008A8B888599852A893B89FC0137832683D6
:1033E0008A899B89FC012681378188859985FC0122
:1033F000318720878A899B89FC018681978128856E
:1034000039852E5F3F4FFC0135832483888599855C
:103410009C012E5F3F4F8A899B89FC01378326835D
:1034200088859985FC01828D282F30E04BE0429FF2
:10343000C001439F900D11249C01245F3E4E88855E
:103440009985FC013587248788859985FC01828DC3
:10345000882F90E04BE0489F9001499F300D112448
:10346000245F3E4EF901208141E0420F5BE0589F0E
:103470009001599F300D1124C901845F9E4EFC01BB
:10348000408388859985FC01228D80910A11909155
:103490000B11FC01828D281708F4A3CE81E08983EB
:1034A000A0CE80910A1190910B11FC01828D282FE2
:1034B00030E04BE0429FC001439F900D1124845F98
:1034C0009E4EFC018081823010F081E089838091E2
:1034D000C1118823B1F081E0898313C08091BD11AF
:1034E0009091BE11A091BF11B091C0110196A11D84
:1034F000B11D8093BD119093BE11A093BF11B093E5
:10350000C011898163960FB6F894DEBF0FBECDBFA0
:10351000DF91CF910895CF93DF9300D0CDB7DEB781
:103520008091CA11882321F081E08093C11178C075
:103530001092C11180910A1190910B11FC01208110
:10354000318180910A1190910B11FC01838D948D32
:103550008217930770F080910A1190910B119C01D2
:10356000235E3F4F80910A1190910B11B9010E9487
:10357000AA2B8091BB11898303C0898181508983E3
:103580008981282F30E04BE0429FC001439F900D7E
:103590001124845F9E4EFC018081882371F3898110
:1035A000282F30E04BE0429FC001439F900D112433
:1035B000845F9E4E9B838A838A819B81FC018181EB
:1035C0009281FC01248135818A819B81FC013283B7
:1035D00021838A819B81FC01218132818A819B81A7
:1035E00003962817390769F48A819B81FC01818140
:1035F0009281FC01248135818A819B81FC01328387
:1036000021838A819B81FC0181819281FC018085DB
:10361000918590930B1180930A1189818093BB113E
:1036200000000F900F900F90DF91CF910895CF93EE
:10363000DF9300D000D0CDB7DEB79A8389834B8368
:103640005C836D837E8380910A1190910B119C01A4
:10365000225F3F4F89819A81B9010E94E7058B81E2
:103660009C81AD81BE8141E0BC01CD010E9433252A
:10367000000026960FB6F894DEBF0FBECDBFDF91D7
:10368000CF910895CF93DF93CDB7DEB729970FB6CB
:10369000F894DEBF0FBECDBF9C838B834D835E83CA
:1036A0006F83788729878B819C81FC01818192813E
:1036B0009A83898380910A1190910B1129813A8113
:1036C000FC01338B228B80910A1190910B1129817F
:1036D0003A81F90126813781FC01358B248B898160
:1036E0009A81FC018681978120910A1130910B11FA
:1036F000225F3F4FFC013583248380910A11909112
:103700000B119C01225F3F4F89819A81FC01378315
:10371000268380910A1190910B112B813C81FC0131
:10372000318F208F8B819C81FC01808121E0280FCB
:103730008B819C81FC0120838985882339F08FEF60
:103740009FEFDC018D839E83AF83B8878D819E813F
:10375000AF81B8854985BC01CD010E9433250000A9
:1037600029960FB6F894DEBF0FBECDBFDF91CF9183
:103770000895CF93DF93CDB7DEB72D970FB6F894AA
:10378000DEBF0FBECDBF9D878C878C859D85FC01DC
:1037900087819085FC01808591859B838A838A81BE
:1037A0009B81FC01808D918D9D838C838A819B817F
:1037B000FC01828993892A813B81F9012489358919
:1037C000FC01378326838A819B81FC01848995894A
:1037D0002A813B81F90122893389FC0135832483C5
:1037E0008C819D81FC01218132818A819B810E9691
:1037F0002817390751F48A819B81FC012489358976
:103800008C819D81FC01328321838A819B81FC0113
:10381000118E108E8C819D81FC0180812FEF280FED
:103820008C819D81FC0120838091CA11882309F03D
:10383000BFC08A819B81FC01848595859F838E838F
:103840008A819B81FC01868197812A813B81F901D4
:1038500020853185FC01378326838A819B81FC0189
:10386000808591852A813B81F90126813781FC0180
:10387000358324838E819F81FC01218132818A815D
:103880009B8102962817390751F48A819B81FC019C
:10389000208531858E819F81FC01328321838A813D
:1038A0009B81FC01158614868E819F81FC0180819D
:1038B0002FEF280F8E819F81FC0120838A819B81BD
:1038C000FC01928D8091BB11891730F48A819B8114
:1038D000FC01828D8093BB118A819B81FC01828DCA
:1038E000282F30E04BE0429FC001439F900D1124F0
:1038F000835F9E4EFC0180819181998788878A81B0
:103900009B8128853985FC013783268388859985A5
:10391000FC01268137818A819B81FC0131872087C8
:1039200088859985FC01868197812A813B812E5F5C
:103930003F4FFC01358324838A819B819C012E5F4C
:103940003F4F88859985FC01378326838A819B8137
:10395000FC01828D282F30E04BE0429FC001439F45
:10396000900D11249C01245F3E4E8A819B81FC01B5
:10397000358724878A819B81FC01828D882F90E086
:103980004BE0489F9001499F300D1124245F3E4E2B
:10399000F901208141E0420F5BE0589F9001599F5F
:1039A000300D1124C901845F9E4EFC01408339C053
:1039B00080919511909196119B878A878A819B812E
:1039C0002A853B85FC01338B228B8A859B85FC01F4
:1039D000268137818A819B81FC01358B248B8A85E6
:1039E0009B85FC01868197812A813B81225F3F4F25
:1039F000FC01358324838A819B819C01225F3F4F98
:103A00008A859B85FC01378326838A819B8124E9F3
:103A100031E1FC01318F208F809194118F5F809371
:103A200094118A819B81FC01228D80910A119091D1
:103A30000B11FC01828D821730F481E0898381E0D3
:103A40008093C11101C0198289812D960FB6F89417
:103A5000DEBF0FBECDBFDF91CF910895CF93DF932F
:103A60001F921F92CDB7DEB79A8389830FB6F89461
:103A70000F922091C21189819A81FC01208380914B
:103A8000B7119091B811A091B911B091BA112981D3
:103A90003A81F90181839283A383B4830F900FBE8F
:103AA00000000F900F90DF91CF910895CF93DF9397
:103AB0001F921F92CDB7DEB79A8389832091C211DE
:103AC00089819A81FC0120838091B7119091B8116E
:103AD000A091B911B091BA1129813A81F90181837C
:103AE0009283A383B48300000F900F90DF91CF9156
:103AF0000895EF92FF920F931F93CF93DF93CDB76B
:103B0000DEB72D970FB6F894DEBF0FBECDBF9B87F3
:103B10008A877D876C870FB6F8940F928091B711D2
:103B20009091B811A091B911B091BA118A839B8379
:103B3000AC83BD838A859B85FC0181819281A381B1
:103B4000B4812A813B814C815D8179018A01E81A27
:103B5000F90A0A0B1B0BD801C7018E839F83A88724
:103B6000B9878C859D85FC0180819181A281B3817B
:103B70008F3F9F4FAF4FBF4F11F419825AC08A85B4
:103B80009B85FC0190818091C2119817D1F08A85A4
:103B90009B85FC0121813281438154818A819B81F3
:103BA000AC81BD8182179307A407B50750F081E06F
:103BB00089838C859D85FC0110821182128213827B
:103BC00038C08C859D85FC012081318142815381E3
:103BD0008E819F81A885B98582179307A407B507B1
:103BE000F8F48C859D85FC012081318142815381CF
:103BF0008E819F81A885B98579018A01E81AF90A21
:103C00000A0B1B0BD801C7012C853D85F901808368
:103C10009183A283B3838A859B8548DF198209C07B
:103C20008C859D85FC01108211821282138281E0B5
:103C300089830F900FBE89812D960FB6F894DEBF51
:103C40000FBECDBFDF91CF911F910F91FF90EF90ED
:103C50000895CF93DF93CDB7DEB781E08093C11194
:103C60000000DF91CF910895CF93DF931F92CDB7DE
:103C7000DEB7198210C08981282F30E04BE0429FC7
:103C8000C001439F900D1124845F9E4E0E949A05AF
:103C900089818F5F898389818A3068F38AE791E11E
:103CA0000E949A0585E891E10E949A0584E991E1D4
:103CB0000E949A058FE991E10E949A058BEA91E1B1
:103CC0000E949A058AE791E1909391118093901157
:103CD00085E891E1909393118093921100000F90E9
:103CE000DF91CF910895CF93DF931F921F92CDB7AD
:103CF000DEB720C00FB6F8940F928091A611909174
:103D0000A711FC01808591859A83898389819A8195
:103D100002960E946E068091B61181508093B61172
:103D20008091AA1181508093AA110F900FBE8981B2
:103D30009A810AD08091AA118823E1F600000F90A1
:103D40000F90DF91CF910895CF93DF931F921F9231
:103D5000CDB7DEB79A83898389819A81FC01838DEF
:103D6000948D0E94F70389819A810E94F7030000D5
:103D70000F900F90DF91CF910895CF93DF93CDB740
:103D8000DEB78091901190919111FC018081882380
:103D900061F48FEF9FEFDC018093C4119093C51104
:103DA000A093C611B093C71114C080919011909147
:103DB0009111FC0187819085FC0180819181A28114
:103DC000B3818093C4119093C511A093C611B09391
:103DD000C7110000DF91CF910895CF93DF931F9219
:103DE0001F92CDB7DEB780910A1190910B119A8383
:103DF000898389819A810F900F90DF91CF910895E7
:103E0000CF93DF931F92CDB7DEB78091BC1188238B
:103E100019F481E0898308C08091CA11882319F4BC
:103E200082E0898301C0198289810F90DF91CF914F
:103E30000895EF92FF920F931F93CF93DF93CDB727
:103E4000DEB727970FB6F894DEBF0FBECDBF9F83B6
:103E50008E838E819F819B838A8319828E819F812D
:103E6000892B09F4BFC08A819B81FC0186A52FEFB5
:103E7000280F8A819B81FC0126A78A819B81FC01F6
:103E8000228D8A819B81FC0185A5281709F4AAC08F
:103E90008A819B81FC0186A5882309F0A3C08A81C1
:103EA0009B8102960E946E068A819B81FC0125A55A
:103EB0008A819B81FC01228F8A819B81FC01828DFA
:103EC000882F90E0A0E0B0E02AE030E040E050E051
:103ED00079018A01E81AF90A0A0B1B0BD801C701FC
:103EE0002A813B81F90186879787A08BB18B8A81D4
:103EF0009B81FC01928D8091BB11891730F48A81DE
:103F00009B81FC01828D8093BB118A819B81FC0186
:103F1000828D282F30E04BE0429FC001439F900DDF
:103F20001124835F9E4EFC01808191819D838C834F
:103F30008A819B812C813D81FC01378326838C8182
:103F40009D81FC01268137818A819B81FC0131871B
:103F500020878C819D81FC01868197812A813B810C
:103F60002E5F3F4FFC01358324838A819B819C0116
:103F70002E5F3F4F8C819D81FC01378326838A8190
:103F80009B81FC01828D282F30E04BE0429FC001D5
:103F9000439F900D11249C01245F3E4E8A819B819A
:103FA000FC01358724878A819B81FC01828D882FC3
:103FB00090E04BE0489F9001499F300D1124245F11
:103FC0003E4EF901208141E0420F5BE0589F900195
:103FD000599F300D1124C901845F9E4EFC0140831E
:103FE00081E08983898127960FB6F894DEBF0FBEE2
:103FF000CDBFDF91CF911F910F91FF90EF9008956A
:10400000AF92BF92CF92DF92EF92FF920F931F93E6
:10401000CF93DF93CDB7DEB760970FB6F894DEBFCE
:104020000FBECDBF8A834B835C836D837E830F83FA
:10403000188729873A87FC86EB86AD86BE86CF86B1
:10404000D88A0FB6F8940F9220910A1130910B1173
:104050008A81882F90E0820F931FC396DC018C9198
:10406000823009F44FC060910A1170910B118A815E
:10407000E82FF0E08A81882F90E0880F991F880F41
:10408000991F860F971F8F96DC012D913D914D91C1
:104090005C918B819C81AD81BE8180959095A0952E
:1040A000B09582239323A423B5239F01220F331FAE
:1040B000220F331F260F371F215D3F4FF9018083E9
:1040C0009183A283B38320910A1130910B118A81CD
:1040D000882F90E0820F931FC39621E0DC012C9380
:1040E0008D859E85AF85B889892B8A2B8B2B51F0C6
:1040F0008D859E85AF85B88941E0BC01CD01B3D4E3
:104100000E948B070F900FBE0FB6F8940F928B850D
:104110009C85892BD1F020910A1130910B118A8155
:10412000882F90E0880F991F880F991F820F931F87
:104130008F96FC0180819181A281B3812B853C8582
:10414000F90180839183A283B38320910A11309176
:104150000B118A81882F90E0820F931FC396DC0198
:104160008C91823011F0198232C060910A117091E5
:104170000B118A81E82FF0E08A81882F90E0880F68
:10418000991F880F991F860F971F8F96DC012D911D
:104190003D914D915C918F819885A985BA858095D7
:1041A0009095A095B09582239323A423B5239F01D6
:1041B000220F331F220F331F260F371F215D3F4F62
:1041C000F90180839183A283B38381E08983209165
:1041D0000A1130910B118A81882F90E0820F931F72
:1041E000C396DC011C920F900FBE898160960FB6BA
:1041F000F894DEBF0FBECDBFDF91CF911F910F911D
:10420000FF90EF90DF90CF90BF90AF900895EF9226
:10421000FF920F93CF93DF93CDB7DEB762970FB6C0
:10422000F894DEBF0FBECDBF9A8789876B872C8736
:104230003D874E875F87088BFA8AE98A81E0898308
:1042400089859A859B838A830FB6F8940F92898912
:104250009A89892BC1F08B85882F90E02A813B8138
:10426000880F991F880F991F820F931F8F96FC014B
:1042700080819181A281B38129893A89F901808362
:104280009183A283B3838B85882F90E02A813B8121
:10429000820F931FC396FC0180818C838B85882FAE
:1042A00090E02A813B81820F931FC39622E0FC019C
:1042B00020838889882F90E08230910509F43EC0E0
:1042C0008330910534F4009709F492C0019749F0C6
:1042D00090C08330910509F456C0049709F46BC06F
:1042E00088C08B85682F70E08B85882F90E02A81AD
:1042F0003B81880F991F880F991F820F931F8F96FC
:10430000FC0120813181428153818C859D85AE8560
:10431000BF85822B932BA42BB52B4A815B819B01FC
:10432000220F331F220F331F240F351F215D3F4FF4
:10433000F90180839183A283B3835BC08B85282F8F
:1043400030E04A815B81C901880F991F880F991F4E
:10435000840F951F8F96FC0180819181A281B3818A
:104360000196A11DB11D4A815B81220F331F220FCF
:10437000331F240F351F215D3F4FF9018083918347
:10438000A283B38336C08B85882F90E02A813B813E
:10439000880F991F880F991F820F931F9C01215D21
:1043A0003F4F8C859D85AE85BF85F90180839183C4
:1043B000A283B3831EC08C818230C1F08B85882F8D
:1043C00090E02A813B81880F991F880F991F820FE7
:1043D000931F9C01215D3F4F8C859D85AE85BF85D8
:1043E000F90180839183A283B38303C0198201C042
:1043F00000008C81813009F0CCC08A819B81FC0156
:10440000848595859E838D838A819B81FC0186812D
:1044100097812A813B81F90120853185FC01378311
:1044200026838A819B81FC01808591852A813B813D
:10443000F90126813781FC01358324838D819E819A
:10444000FC01218132818A819B81029628173907DC
:1044500051F48A819B81FC01208531858D819E816B
:10446000FC01328321838A819B81FC01158614869D
:104470008D819E81FC0180812FEF280F8D819E818F
:10448000FC0120838A819B81FC01928D8091BB116C
:10449000891730F48A819B81FC01828D8093BB1146
:1044A0008A819B81FC01828D282F30E04BE0429F66
:1044B000C001439F900D1124835F9E4EFC018081BB
:1044C000918198878F838A819B812F813885FC0118
:1044D000378326838F819885FC01268137818A81E5
:1044E0009B81FC01318720878F819885FC01868123
:1044F00097812A813B812E5F3F4FFC0135832483C6
:104500008A819B819C012E5F3F4F8F819885FC01A2
:10451000378326838A819B81FC01828D282F30E09E
:104520004BE0429FC001439F900D11249C01245FEA
:104530003E4E8A819B81FC01358724878A819B813D
:10454000FC01828D882F90E04BE0489F9001499FAD
:10455000300D1124245F3E4EF901208141E0420FCD
:104560005BE0589F9001599F300D1124C901845F71
:104570009E4EFC0140838A819B81FC01228D8091AB
:104580000A1190910B11FC01828D821710F40E9488
:104590008B070F900FBE898162960FB6F894DEBF2D
:1045A0000FBECDBFDF91CF910F91FF90EF90089597
:1045B000CF92DF92EF92FF920F93CF93DF93CDB71D
:1045C000DEB767970FB6F894DEBF0FBECDBF9D87ED
:1045D0008C876E872F87388B498B5A8B0B8BFD8A84
:1045E000EC8ADF8ACE8A81E089838C859D859B83D6
:1045F0008A831C828C899D89892BC1F08E85882FA6
:1046000090E02A813B81880F991F880F991F820FA4
:10461000931F8F96FC0180819181A281B3812C89A7
:104620003D89F90180839183A283B3838E85882F8E
:1046300090E02A813B81820F931FC396FC01808109
:104640008D838E85882F90E02A813B81820F931F76
:10465000C39622E0FC0120838B89882F90E0823072
:10466000910509F43EC08330910534F4009709F4B4
:1046700092C0019749F090C08330910509F456C06B
:10468000049709F46BC088C08E85682F70E08E8512
:10469000882F90E02A813B81880F991F880F991FEE
:1046A000820F931F8F96FC012081318142815381BB
:1046B0008F859889A989BA89822B932BA42BB52B36
:1046C0004A815B819B01220F331F220F331F240F6E
:1046D000351F215D3F4FF90180839183A283B3830E
:1046E0005BC08E85282F30E04A815B81C901880F2D
:1046F000991F880F991F840F951F8F96FC01808149
:104700009181A281B3810196A11DB11D4A815B8176
:10471000220F331F220F331F240F351F215D3F4F00
:10472000F90180839183A283B38336C08E85882F5D
:1047300090E02A813B81880F991F880F991F820F73
:10474000931F9C01215D3F4F8F859889A989BA8964
:10475000F90180839183A283B3831EC08D8182304F
:10476000C1F08E85882F90E02A813B81880F991FA8
:10477000880F991F820F931F9C01215D3F4F8F85EA
:104780009889A989BA89F90180839183A283B38327
:1047900003C0198201C000008D81813009F015C16C
:1047A0008091CA11882309F0BFC08A819B81FC01D6
:1047B000848595859F838E838A819B81FC01868178
:1047C00097812A813B81F90120853185FC0137835E
:1047D00026838A819B81FC01808591852A813B818A
:1047E000F90126813781FC01358324838E819F81E5
:1047F000FC01218132818A819B8102962817390729
:1048000051F48A819B81FC01208531858E819F81B5
:10481000FC01328321838A819B81FC0115861486E9
:104820008E819F81FC0180812FEF280F8E819F81D7
:10483000FC0120838A819B81FC01928D8091BB11B8
:10484000891730F48A819B81FC01828D8093BB1192
:104850008A819B81FC01828D282F30E04BE0429FB2
:10486000C001439F900D1124835F9E4EFC01808107
:104870009181998788878A819B8128853985FC0168
:104880003783268388859985FC01268137818A8133
:104890009B81FC013187208788859985FC01868171
:1048A00097812A813B812E5F3F4FFC013583248312
:1048B0008A819B819C012E5F3F4F88859985FC01F1
:1048C000378326838A819B81FC01828D282F30E0EB
:1048D0004BE0429FC001439F900D11249C01245F37
:1048E0003E4E8A819B81FC01358724878A819B818A
:1048F000FC01828D882F90E04BE0489F9001499FFA
:10490000300D1124245F3E4EF901208141E0420F19
:104910005BE0589F9001599F300D1124C901845FBD
:104920009E4EFC01408339C0809195119091961163
:104930009B878A878A819B812A853B85FC01338BF3
:10494000228B8A859B85FC01268137818A819B8108
:10495000FC01358B248B8A859B85FC0186819781A0
:104960002A813B81225F3F4FFC01358324838A816A
:104970009B819C01225F3F4F8A859B85FC01378389
:1049800026838A819B8124E931E1FC01318F208FCC
:10499000809194118F5F809394118A819B81FC0197
:1049A000228D80910A1190910B11FC01828D82174A
:1049B00060F48E899F89892B29F08E899F8921E057
:1049C000FC01208381E08093C111898167960FB635
:1049D000F894DEBF0FBECDBFDF91CF910F91FF9056
:1049E000EF90DF90CF900895CF93DF9300D000D069
:1049F000CDB7DEB79D838C836E838C819D81892B9F
:104A000029F480910A1190910B1102C08C819D8133
:104A10009B838A830FB6F8940F928E81882F90E043
:104A20002A813B81820F931FC396FC0180818230D3
:104A300069F48E81882F90E02A813B81820F931F39
:104A4000C396FC01108281E0898301C019820F9016
:104A50000FBE898126960FB6F894DEBF0FBECDBF7C
:104A6000DF91CF910895CF93DF93CDB7DEB72F9726
:104A70000FB6F894DEBF0FBECDBF6B877C878D87E6
:104A80009E874F878091B7119091B811A091B9116D
:104A9000B091BA1189839A83AB83BC8380910A1148
:104AA00090910B1102960E946E068B859C85AD85B8
:104AB000BE858F3F9F4FAF4FBF4F09F049C08F85D5
:104AC000882309F445C08091AC119091AD119E836B
:104AD0008D8380910A1190910B112D813E81FC01F3
:104AE0003783268380910A1190910B112D813E818D
:104AF000F90126813781FC01318720878D819E81D4
:104B0000FC018681978120910A1130910B112E5F53
:104B10003F4FFC013583248380910A1190910B1142
:104B20009C012E5F3F4F8D819E81FC013783268340
:104B300080910A1190910B112BEA31E1FC0135872C
:104B400024878091AB118F5F8093AB11000064C00C
:104B500029813A814B815C818B859C85AD85BE85A1
:104B6000820F931FA41FB51F8F839887A987BA87C9
:104B700020910A1130910B118F819885A985BA85F2
:104B8000F90182839383A483B5832F813885498576
:104B90005A8589819A81AB81BC81281739074A07D8
:104BA0005B0778F480910A1190910B119C012E5FA4
:104BB0003F4F8091921190919311B9010E94E705A6
:104BC0002BC080910A1190910B119C012E5F3F4FD9
:104BD0008091901190919111B9010E94E705809107
:104BE000C4119091C511A091C611B091C7112F8128
:104BF000388549855A85281739074A075B0760F4C5
:104C00008F819885A985BA858093C4119093C51129
:104C1000A093C611B093C71100002F960FB6F89459
:104C2000DEBF0FBECDBFDF91CF910895EF92FF920F
:104C30000F93CF93DF931F92CDB7DEB71982AED417
:104C40008091E5119091E611892B91F00F2EF7EEEE
:104C5000EF2EF1E1FF2EF02D03E020E030E040ECFC
:104C600050E06DE773E08EE890E00E947413898352
:104C700089810F90DF91CF910F91FF90EF90089570
:104C8000CF92DF92EF92FF920F931F93CF93DF9318
:104C9000CDB7DEB765970FB6F894DEBF0FBECDBFB8
:104CA0009A8789876B872C873D874E875F87198B0B
:104CB000088BCA8ADB8AEC8AFD8A19828091E51109
:104CC0009091E611892B09F443C08B858A838C85EA
:104CD0009D85AE85BF858B839C83AD83BE8389858F
:104CE0009A8598878F838B8586302CF589D882307A
:104CF00099F4E091E511F091E6118A899B89AC89DC
:104D0000BD89BE016E5F7F4F00E09C01AD01CF0108
:104D10000E94D90989831CC08091E5119091E61108
:104D2000BE016E5F7F4F00E020E030E0A9010E94ED
:104D3000D90989830DC08091E5119091E6114889C8
:104D40005989BE016E5F7F4F20E00E948F0A8983E0
:104D5000898165960FB6F894DEBF0FBECDBFDF9197
:104D6000CF911F910F91FF90EF90DF90CF9008951A
:104D7000CF92DF92EF92FF920F931F93CF93DF9327
:104D8000CDB7DEB72B970FB6F894DEBF0FBECDBF01
:104D90006C837D838E839F83288739874A875B87CF
:104DA0008091E1119091E211FC0187819085FC01D5
:104DB000808591859A83898389819A8102960E9450
:104DC0006E0689819A81FC018689882F90E0847023
:104DD0009927892BA9F189819A81FC01268537853C
:104DE000408951898C819D81AE81BF81820F931F43
:104DF000A41FB51FEC80FD800E811F812885398599
:104E00004A855B85E981FA816701780189019A0108
:104E1000AC01BD01CF013ED18823E1F08C819D81A1
:104E2000AE81BF81E981FA81C12CD12C760100E0ED
:104E300010E09C01AD0160E0CF0122DF8B830AC04E
:104E400089819A81FC018689282F2E7F89819A8108
:104E5000FC01268B89819A81FC012489358989810D
:104E60009A81F901199500002B960FB6F894DEBFD0
:104E70000FBECDBFDF91CF911F910F91FF90EF90AB
:104E8000DF90CF900895EF92FF920F931F93CF93EF
:104E9000DF93CDB7DEB72A970FB6F894DEBF0FBE0B
:104EA000CDBF6E837F83888799874A870E94D316F8
:104EB000CE010596A8D0DC01CB0189839A83AB8310
:104EC000BC838D81882309F04DC08A858823D9F45D
:104ED0002E813F814885598589819A81AB81BC812A
:104EE00082179307A407B50770F00E94E016298186
:104EF0003A814B815C818E819F81A885B985BC01F7
:104F0000CD0136DF31C08A85882359F08091E311C5
:104F10009091E411FC01908181E0992309F080E0F7
:104F20008A872E813F814885598589819A81AB8105
:104F3000BC8179018A01E81AF90A0A0B1B0BD80116
:104F4000C701E091E511F091E6112A85AC01BD01A0
:104F5000CF010E94630D0E94E016882329F40E946D
:104F60008B0702C00E94E01600002A960FB6F89444
:104F7000DEBF0FBECDBFDF91CF911F910F91FF908C
:104F8000EF900895CF93DF9300D000D0CDB7DEB778
:104F90009E838D838091E1119091E211FC019081BB
:104FA00081E0992309F080E0282F8D819E81FC010A
:104FB00020838D819E81FC018081882389F48091EA
:104FC000E1119091E211FC0187819085FC018081C3
:104FD0009181A281B38189839A83AB83BC8304C00E
:104FE00019821A821B821C8289819A81AB81BC81C1
:104FF000BC01CD0126960FB6F894DEBF0FBECDBF23
:10500000DF91CF910895CF93DF9300D000D0CDB73B
:10501000DEB79E838D830E946E18DC01CB018983ED
:105020009A83AB83BC838091E9119091EA11A0919E
:10503000EB11B091EC1129813A814B815C812817E9
:1050400039074A075B0738F4E6D18D819E8121E05C
:10505000FC01208304C08D819E81FC011082898126
:105060009A81AB81BC818093E9119093EA11A0935E
:10507000EB11B093EC1189819A81AB81BC81BC01A9
:10508000CD0126960FB6F894DEBF0FBECDBFDF91DF
:10509000CF910895CF92DF92EF92FF920F931F93DB
:1050A000CF93DF93CDB7DEB72F970FB6F894DEBF5F
:1050B0000FBECDBF9B838A834C835D836E837F83CA
:1050C000088719872A873B87CC86DD86EE86FF8690
:1050D00019822A813B818C819D81AE81BF81F9013A
:1050E00082839383A483B5838A819B812A813B81B8
:1050F000FC01338722872C813D814E815F81888529
:105100009985AA85BB8582179307A407B50740F147
:10511000288539854A855B858C859D85AE85BF85CB
:10512000281B390B4A0B5B0B8A819B81FC0186850E
:105130009785A089B189281739074A075B0718F0B6
:1051400081E0898336C08A819B819C012E5F3F4F1D
:105150008091E3119091E411B9010E94E70529C003
:10516000288539854A855B858C859D85AE85BF857B
:10517000281739074A075B0780F42C813D814E814F
:105180005F818C859D85AE85BF85281739074A07C5
:105190005B0718F081E089830CC08A819B819C01A8
:1051A0002E5F3F4F8091E1119091E211B9010E9471
:1051B000E70589812F960FB6F894DEBF0FBECDBFED
:1051C000DF91CF911F910F91FF90EF90DF90CF90E3
:1051D0000895CF92DF92EF92FF920F931F93CF9398
:1051E000DF93CDB7DEB72F970FB6F894DEBF0FBEB3
:1051F000CDBFF2C0888588230CF4EEC08D859E85D6
:105200009A83898389819A81FC0184859585892B7C
:1052100029F089819A8102960E946E06CE010F962E
:10522000F2DEDC01CB018B839C83AD83BE8388855A
:10523000082E000C990B092E000CAA0BBB0B40E0AA
:1052400050E029E030E0841B950B2817390708F45B
:10525000C2C0FC018827EE58FF4F8F4F0C94843951
:1052600089819A81FC018689282F216089819A8110
:10527000FC01268BE984FA840B851C8529853A85F7
:105280004B855C8589819A81FC0186859785A089FB
:10529000B189820F931FA41FB51F2B813C814D81C3
:1052A0005E81E981FA816701780189019A01AC0187
:1052B000BD01CF01EFDE882309F48EC089819A8178
:1052C000FC012489358989819A81F901199589819F
:1052D0009A81FC018689882F90E084709927892B18
:1052E00009F47AC029853A854B855C8589819A8144
:1052F000FC0186859785A089B189820F931FA41F21
:10530000B51FE981FA81C12CD12C760100E010E0B3
:105310009C01AD0160E0CF01B3DC8F835DC089816A
:105320009A81FC018689282F2E7F89819A81FC0130
:10533000268B52C089819A81FC018689282F2160A1
:1053400089819A81FC01268B89859A85AB85BC85EC
:1053500029813A81F90186879787A08BB18B898152
:105360009A81FC0126853785408951898B819C81F2
:10537000AD81BE81820F931FA41FB51FEB80FC80FF
:105380000D811E812B813C814D815E81E981FA81F5
:105390006701780189019A01AC01BD01CF017ADE74
:1053A0001BC089819A81FC018689882F90E08270D8
:1053B0009927892B29F489819A810E94F7030CC0CF
:1053C00089819A81FC018689282F2E7F89819A8183
:1053D000FC01268B01C000008091E5119091E6113F
:1053E000BE01685F7F4F20E030E0A9010E94F20A11
:1053F000882309F0FFCE00002F960FB6F894DEBF89
:105400000FBECDBFDF91CF911F910F91FF90EF9015
:10541000DF90CF900895CF92DF92EF92FF920F939B
:105420001F93CF93DF93CDB7DEB72D970FB6F894C8
:10543000DEBF0FBECDBF85C08091E1119091E2111A
:10544000FC0187819085FC0180819181A281B381DB
:1054500089839A83AB83BC838091E1119091E2119F
:10546000FC0187819085FC01808591859E838D83D9
:105470008D819E8102960E946E068D819E81FC0127
:10548000248935898D819E81F90119958D819E81AF
:10549000FC018689882F90E084709927892B09F474
:1054A00050C08D819E81FC012685378540895189B8
:1054B00089819A81AB81BC81820F931FA41FB51F84
:1054C0008F839887A987BA872F81388549855A8520
:1054D00089819A81AB81BC8182179307A407B507A4
:1054E000F8F42D813E818F819885A985BA85F901CF
:1054F00082839383A483B5838D819E812D813E8198
:10550000FC01338722878D819E819C012E5F3F4F56
:105510008091E1119091E211B9010E94E70511C05B
:1055200089819A81AB81BC81ED81FE81C12CD12C16
:10553000760100E010E09C01AD0160E0CF01A0DB4E
:105540008B878091E1119091E211FC018081882389
:1055500009F072CF8091E1119091E2119D878C87C3
:105560008091E3119091E4119093E2118093E11105
:105570008C859D859093E4118093E31100002D9616
:105580000FB6F894DEBF0FBECDBFDF91CF911F9154
:105590000F91FF90EF90DF90CF900895CF93DF931E
:1055A000CDB7DEB70FB6F8940F928091E5119091C8
:1055B000E611892BE9F48BEC91E10E949A0586EDC6
:1055C00091E10E949A058BEC91E19093E211809316
:1055D000E11186ED91E19093E4118093E31140E0B5
:1055E00067E08AE00E9409099093E6118093E51133
:1055F0000F900FBE0000DF91CF910895CF93DF93FE
:10560000CDB7DEB70000DF91CF910895CF93DF9340
:10561000CDB7DEB784E290E024E230E0F9012081EA
:105620002068FC01208385E290E025E230E0F9016A
:1056300020812068FC0120830000DF91CF91089534
:10564000CF93DF93CDB7DEB783E290E023E230E083
:10565000F90120812068FC0120830000DF91CF91B7
:105660000895CF93DF93CDB7DEB72E970FB6F8949A
:10567000DEBF0FBECDBFCADF80E090E0A8E4B2E499
:1056800089839A83AB83BC8320E030E04AE755E40A
:1056900069817A818B819C817CD2DC01CB018D83F5
:1056A0009E83AF83B88720E030E040E85FE36D8100
:1056B0007E818F819885ECD188232CF481E090E065
:1056C0009A8789873BC020E03FEF4FE757E46D8121
:1056D0007E818F81988559D218163CF520E030E004
:1056E00040E251E469817A818B819C8152D2DC0154
:1056F000CB01BC01CD01D0D1DC01CB019A878987D8
:105700000FC080E991E09C878B878B859C850197F2
:10571000F1F79C878B8789859A8501979A87898776
:1057200089859A85892B69F713C06D817E818F8168
:105730009885B2D1DC01CB019A87898789859A85C2
:105740009E878D878D859E850197F1F79E878D8732
:1057500077DF92CFCF93DF93CDB7DEB762970FB6E7
:10576000F894DEBF0FBECDBF988B8F877A8B698B85
:105770004DDF80E090E0AAEFB4E489839A83AB83A5
:10578000BC8320E030E04AE755E469817A818B816F
:105790009C81FFD1DC01CB018D839E83AF83B887D1
:1057A00020E030E040E85FE36D817E818F81988565
:1057B0006FD188232CF481E090E09A8789873BC0E1
:1057C00020E03FEF4FE757E46D817E818F81988520
:1057D000DCD118163CF520E030E040E251E469816C
:1057E0007A818B819C81D5D1DC01CB01BC01CD01BB
:1057F00053D1DC01CB019A8789870FC080E991E002
:105800009C878B878B859C850197F1F79C878B877D
:1058100089859A8501979A87898789859A85892BB1
:1058200069F713C06D817E818F81988535D1DC0148
:10583000CB019A87898789859A859E878D878D85F3
:105840009E850197F1F79E878D87FADE92CFEF92C2
:10585000FF920F93CF93DF93CDB7DEB780913213D2
:1058600090913313892BC9F481E00E94BB09909376
:105870003313809332138091321390913313892B19
:1058800061F0809132139091331300E020E030E01A
:10589000A90160E070E00E94D909E12CF12C03E03D
:1058A00020E030E040EC50E065E873E082EB9CE201
:1058B0000E947413E12CF12C03E020E030E040EC76
:1058C00050E069E973E08AE391E00E947413E12CEF
:1058D000F12C02E020E030E040EC50E060EB73E0BF
:1058E0008BE79CE20E9474130000DF91CF910F912F
:1058F000FF90EF900895CF93DF93CDB7DEB72A974F
:105900000FB6F894DEBF0FBECDBF9A8789878FE1AF
:1059100090E0A0E0B0E089839A83AB83BC830E94CF
:105920006E18DC01CB018D839E83AF83B88789819C
:105930009A81AB81BC819E012B5F3F4FAC01BD01C1
:10594000C9010E94A41580EB93E00E94233B82E2F0
:1059500090E022E230E0F901308121E02327FC01D0
:105960002083E5CF0F931F93CF93DF93CDB7DEB79F
:105970002A970FB6F894DEBF0FBECDBF9A878987EE
:105980008AEF90E00E94D3009A83898386E090E0BA
:10599000A0E0B0E08B839C83AD83BE83E091ED11EA
:1059A000F091EE118B819C81AD81BE8169817A81FC
:1059B0008C019D0142E050E0CF010E94A30E988728
:1059C0008F838F819885029739F064E574E280E0D7
:1059D00090E00E946016D4CF86EB93E00E94233BB8
:1059E00068EA78E480E090E00E946016C9CFCF9327
:1059F000DF93CDB7DEB781E290E021E230E0F9013C
:105A000020812168FC01208380E00E9471361FDF25
:105A100084E090E041E060E070E00E94B20D90937D
:105A2000EE118093ED118CE290E041E060E070E0D7
:105A30000E94B20D9093F0118093EF1185E00E94C7
:105A400078378091EF119091F011BC0181E04BD239
:105A50008091ED119091EE110E9411018091ED1154
:105A60009091EE110E9411010000DF91CF910895F5
:105A7000CF93DF93CDB7DEB7BADF8CEC93E00E9413
:105A8000233B0E948E1680E090E0DF91CF91089535
:105A90002FD008F481E0089557D088F09F5790F0F8
:105AA000B92F9927B751A0F0D1F0660F771F881F43
:105AB000991F1AF0BA95C9F712C0B13081F05ED0C3
:105AC000B1E008955BC0672F782F8827B85F39F061
:105AD000B93FCCF3869577956795B395D9F73EF4A2
